{
  "address": "0x5FbDB2315678afecb367f032d93F642f64180aa3",
  "abi": [
    {
      "inputs": [],
      "stateMutability": "nonpayable",
      "type": "constructor"
    },
    {
      "anonymous": false,
      "inputs": [
        {
          "indexed": true,
          "internalType": "address",
          "name": "user",
          "type": "address"
        },
        {
          "indexed": false,
          "internalType": "string",
          "name": "apiKey",
          "type": "string"
        }
      ],
      "name": "ApiGenerates",
      "type": "event"
    },
    {
      "anonymous": false,
      "inputs": [
        {
          "indexed": true,
          "internalType": "address",
          "name": "_owner",
          "type": "address"
        },
        {
          "indexed": false,
          "internalType": "string",
          "name": "documentUrl",
          "type": "string"
        },
        {
          "indexed": false,
          "internalType": "string",
          "name": "uniqueId",
          "type": "string"
        }
      ],
      "name": "CertificateIssued",
      "type": "event"
    },
    {
      "anonymous": false,
      "inputs": [
        {
          "indexed": true,
          "internalType": "address",
          "name": "_issuer",
          "type": "address"
        },
        {
          "indexed": true,
          "internalType": "address",
          "name": "_owner",
          "type": "address"
        },
        {
          "indexed": false,
          "internalType": "string",
          "name": "documentUrl",
          "type": "string"
        },
        {
          "indexed": true,
          "internalType": "string",
          "name": "uniqueId",
          "type": "string"
        },
        {
          "indexed": false,
          "internalType": "string",
          "name": "remarks",
          "type": "string"
        }
      ],
      "name": "CertificateValidate",
      "type": "event"
    },
    {
      "anonymous": false,
      "inputs": [
        {
          "indexed": true,
          "internalType": "address",
          "name": "user",
          "type": "address"
        },
        {
          "indexed": false,
          "internalType": "enum Certificate.Role_Access",
          "name": "role_assigned",
          "type": "uint8"
        }
      ],
      "name": "RoleAssigned",
      "type": "event"
    },
    {
      "inputs": [
        {
          "internalType": "address",
          "name": "_user",
          "type": "address"
        }
      ],
      "name": "GetUserDetail",
      "outputs": [
        {
          "components": [
            {
              "internalType": "address",
              "name": "userId",
              "type": "address"
            },
            {
              "internalType": "enum Certificate.Role_Access",
              "name": "role_assigned",
              "type": "uint8"
            },
            {
              "internalType": "string",
              "name": "universityName",
              "type": "string"
            },
            {
              "internalType": "bool",
              "name": "isValid",
              "type": "bool"
            }
          ],
          "internalType": "struct Certificate.User",
          "name": "",
          "type": "tuple"
        }
      ],
      "stateMutability": "view",
      "type": "function"
    },
    {
      "inputs": [
        {
          "internalType": "address",
          "name": "_student",
          "type": "address"
        },
        {
          "internalType": "string",
          "name": "_certId",
          "type": "string"
        }
      ],
      "name": "discardCertficate",
      "outputs": [],
      "stateMutability": "nonpayable",
      "type": "function"
    },
    {
      "inputs": [
        {
          "internalType": "address",
          "name": "_user",
          "type": "address"
        },
        {
          "internalType": "string",
          "name": "_universityName",
          "type": "string"
        },
        {
          "internalType": "enum Certificate.Role_Access",
          "name": "_role",
          "type": "uint8"
        }
      ],
      "name": "generateApiKey",
      "outputs": [],
      "stateMutability": "nonpayable",
      "type": "function"
    },
    {
      "inputs": [
        {
          "internalType": "address",
          "name": "_owner",
          "type": "address"
        },
        {
          "internalType": "string",
          "name": "_documentUrl",
          "type": "string"
        },
        {
          "internalType": "string",
          "name": "_uniqueId",
          "type": "string"
        },
        {
          "internalType": "string",
          "name": "_courseId",
          "type": "string"
        },
        {
          "internalType": "string",
          "name": "_remark",
          "type": "string"
        }
      ],
      "name": "generateCertificate",
      "outputs": [],
      "stateMutability": "nonpayable",
      "type": "function"
    },
    {
      "inputs": [],
      "name": "getAllMyCertificates",
      "outputs": [
        {
          "components": [
            {
              "internalType": "address",
              "name": "owner",
              "type": "address"
            },
            {
              "internalType": "address",
              "name": "issuer",
              "type": "address"
            },
            {
              "internalType": "string",
              "name": "documentUrl",
              "type": "string"
            },
            {
              "internalType": "string",
              "name": "uniqueId",
              "type": "string"
            },
            {
              "internalType": "string",
              "name": "courseId",
              "type": "string"
            },
            {
              "internalType": "string",
              "name": "remarks",
              "type": "string"
            },
            {
              "internalType": "bool",
              "name": "isValid",
              "type": "bool"
            }
          ],
          "internalType": "struct Certificate.CertificateDetail[]",
          "name": "",
          "type": "tuple[]"
        }
      ],
      "stateMutability": "view",
      "type": "function"
    },
    {
      "inputs": [
        {
          "internalType": "address",
          "name": "_user",
          "type": "address"
        }
      ],
      "name": "getApiKeys",
      "outputs": [
        {
          "internalType": "string",
          "name": "",
          "type": "string"
        }
      ],
      "stateMutability": "view",
      "type": "function"
    },
    {
      "inputs": [
        {
          "internalType": "string",
          "name": "_certId",
          "type": "string"
        }
      ],
      "name": "getCertificateDetail",
      "outputs": [
        {
          "components": [
            {
              "internalType": "address",
              "name": "owner",
              "type": "address"
            },
            {
              "internalType": "address",
              "name": "issuer",
              "type": "address"
            },
            {
              "internalType": "string",
              "name": "documentUrl",
              "type": "string"
            },
            {
              "internalType": "string",
              "name": "uniqueId",
              "type": "string"
            },
            {
              "internalType": "string",
              "name": "courseId",
              "type": "string"
            },
            {
              "internalType": "string",
              "name": "remarks",
              "type": "string"
            },
            {
              "internalType": "bool",
              "name": "isValid",
              "type": "bool"
            }
          ],
          "internalType": "struct Certificate.CertificateDetail",
          "name": "",
          "type": "tuple"
        }
      ],
      "stateMutability": "view",
      "type": "function"
    },
    {
      "inputs": [
        {
          "internalType": "string",
          "name": "_certId",
          "type": "string"
        }
      ],
      "name": "getCertificateIssuer",
      "outputs": [
        {
          "internalType": "address",
          "name": "",
          "type": "address"
        }
      ],
      "stateMutability": "view",
      "type": "function"
    },
    {
      "inputs": [],
      "name": "getOwner",
      "outputs": [
        {
          "internalType": "address",
          "name": "",
          "type": "address"
        }
      ],
      "stateMutability": "view",
      "type": "function"
    },
    {
      "inputs": [
        {
          "internalType": "address",
          "name": "_user",
          "type": "address"
        }
      ],
      "name": "getUserPermission",
      "outputs": [
        {
          "internalType": "enum Certificate.Role_Access",
          "name": "",
          "type": "uint8"
        }
      ],
      "stateMutability": "view",
      "type": "function"
    },
    {
      "inputs": [
        {
          "internalType": "address",
          "name": "_user",
          "type": "address"
        },
        {
          "internalType": "enum Certificate.Role_Access",
          "name": "_newRole",
          "type": "uint8"
        }
      ],
      "name": "modifyRole",
      "outputs": [],
      "stateMutability": "nonpayable",
      "type": "function"
    },
    {
      "inputs": [],
      "name": "owner",
      "outputs": [
        {
          "internalType": "address",
          "name": "",
          "type": "address"
        }
      ],
      "stateMutability": "view",
      "type": "function"
    },
    {
      "inputs": [
        {
          "internalType": "address",
          "name": "",
          "type": "address"
        }
      ],
      "name": "userPermission",
      "outputs": [
        {
          "internalType": "enum Certificate.Role_Access",
          "name": "",
          "type": "uint8"
        }
      ],
      "stateMutability": "view",
      "type": "function"
    },
    {
      "inputs": [
        {
          "internalType": "string",
          "name": "_certId",
          "type": "string"
        }
      ],
      "name": "validateCertificate",
      "outputs": [
        {
          "internalType": "bool",
          "name": "",
          "type": "bool"
        }
      ],
      "stateMutability": "nonpayable",
      "type": "function"
    }
  ],
  "transactionHash": "0x5135b420695d25671ecf769c3d1cf06f775e742cf6fb7714175045f29d6f0a2a",
  "args": [],
  "numDeployments": 1,
  "solcInputHash": "9a3a1041b73e26faae90b8bd7404b933",
  "bytecode": "0x60806040523480156200001157600080fd5b50336000806101000a81548173ffffffffffffffffffffffffffffffffffffffff021916908373ffffffffffffffffffffffffffffffffffffffff1602179055506004600160003373ffffffffffffffffffffffffffffffffffffffff1673ffffffffffffffffffffffffffffffffffffffff16815260200190815260200160002060006101000a81548160ff02191690836004811115620000b857620000b762000114565b5b02179055503373ffffffffffffffffffffffffffffffffffffffff167f4ac36fa53f167ceb85964be512e01de2a3b8bdb9862f917da079deeeff689b38600460405162000106919062000194565b60405180910390a2620001b1565b7f4e487b7100000000000000000000000000000000000000000000000000000000600052602160045260246000fd5b6005811062000157576200015662000114565b5b50565b60008190506200016a8262000143565b919050565b60006200017c826200015a565b9050919050565b6200018e816200016f565b82525050565b6000602082019050620001ab600083018462000183565b92915050565b612d9780620001c16000396000f3fe608060405234801561001057600080fd5b50600436106100ea5760003560e01c8063893d20e81161008c578063e94de18111610066578063e94de1811461026f578063e9b5db181461028d578063e9c1847e146102bd578063fdc82d25146102d9576100ea565b8063893d20e8146102035780638da5cb5b14610221578063970cca011461023f576100ea565b80634b2a7993116100c85780634b2a79931461016b5780636f7cf0281461019b57806375d435a3146101b757806386655139146101e7576100ea565b806303512796146100ef5780632df68d721461010b578063440c4fad1461013b575b600080fd5b6101096004803603810190610104919061225f565b610309565b005b610125600480360381019061012091906122ce565b6105fc565b6040516101329190612332565b60405180910390f35b610155600480360381019061015091906122ce565b610aa0565b604051610162919061235c565b60405180910390f35b610185600480360381019061018091906122ce565b610ae8565b60405161019291906124ce565b60405180910390f35b6101b560048036038101906101b091906124f0565b610eb4565b005b6101d160048036038101906101cc919061254c565b6111b6565b6040516101de9190612653565b60405180910390f35b61020160048036038101906101fc9190612675565b61134d565b005b61020b6117ef565b604051610218919061235c565b60405180910390f35b610229611818565b604051610236919061235c565b60405180910390f35b6102596004803603810190610254919061254c565b61183c565b604051610266919061276f565b60405180910390f35b61027761185c565b60405161028491906128fd565b60405180910390f35b6102a760048036038101906102a2919061254c565b611c8c565b6040516102b49190612969565b60405180910390f35b6102d760048036038101906102d2919061298b565b611d5d565b005b6102f360048036038101906102ee919061254c565b611ecc565b604051610300919061276f565b60405180910390f35b600480600481111561031e5761031d612579565b5b600160003373ffffffffffffffffffffffffffffffffffffffff1673ffffffffffffffffffffffffffffffffffffffff16815260200190815260200160002060009054906101000a900460ff16600481111561037d5761037c612579565b5b10156103be576040517f08c379a00000000000000000000000000000000000000000000000000000000081526004016103b590612a17565b60405180910390fd5b600060405180608001604052808673ffffffffffffffffffffffffffffffffffffffff1681526020018460048111156103fa576103f9612579565b5b815260200185815260200160011515815250905080600260008773ffffffffffffffffffffffffffffffffffffffff1673ffffffffffffffffffffffffffffffffffffffff16815260200190815260200160002060008201518160000160006101000a81548173ffffffffffffffffffffffffffffffffffffffff021916908373ffffffffffffffffffffffffffffffffffffffff16021790555060208201518160000160146101000a81548160ff021916908360048111156104c0576104bf612579565b5b021790555060408201518160010190805190602001906104e1929190611f22565b5060608201518160020160006101000a81548160ff02191690831515021790555090505082600160008773ffffffffffffffffffffffffffffffffffffffff1673ffffffffffffffffffffffffffffffffffffffff16815260200190815260200160002060006101000a81548160ff0219169083600481111561056757610566612579565b5b02179055506040518060400160405280600b81526020017f6170695f6b65795f677475000000000000000000000000000000000000000000815250600360008773ffffffffffffffffffffffffffffffffffffffff1673ffffffffffffffffffffffffffffffffffffffff16815260200190815260200160002090805190602001906105f4929190611f22565b505050505050565b6000600280600481111561061357610612612579565b5b600160003373ffffffffffffffffffffffffffffffffffffffff1673ffffffffffffffffffffffffffffffffffffffff16815260200190815260200160002060009054906101000a900460ff16600481111561067257610671612579565b5b10156106b3576040517f08c379a00000000000000000000000000000000000000000000000000000000081526004016106aa90612a17565b60405180910390fd5b60006005846040516106c59190612a73565b90815260200160405180910390206040518060e00160405290816000820160009054906101000a900473ffffffffffffffffffffffffffffffffffffffff1673ffffffffffffffffffffffffffffffffffffffff1673ffffffffffffffffffffffffffffffffffffffff1681526020016001820160009054906101000a900473ffffffffffffffffffffffffffffffffffffffff1673ffffffffffffffffffffffffffffffffffffffff1673ffffffffffffffffffffffffffffffffffffffff16815260200160028201805461079a90612ab9565b80601f01602080910402602001604051908101604052809291908181526020018280546107c690612ab9565b80156108135780601f106107e857610100808354040283529160200191610813565b820191906000526020600020905b8154815290600101906020018083116107f657829003601f168201915b5050505050815260200160038201805461082c90612ab9565b80601f016020809104026020016040519081016040528092919081815260200182805461085890612ab9565b80156108a55780601f1061087a576101008083540402835291602001916108a5565b820191906000526020600020905b81548152906001019060200180831161088857829003601f168201915b505050505081526020016004820180546108be90612ab9565b80601f01602080910402602001604051908101604052809291908181526020018280546108ea90612ab9565b80156109375780601f1061090c57610100808354040283529160200191610937565b820191906000526020600020905b81548152906001019060200180831161091a57829003601f168201915b5050505050815260200160058201805461095090612ab9565b80601f016020809104026020016040519081016040528092919081815260200182805461097c90612ab9565b80156109c95780601f1061099e576101008083540402835291602001916109c9565b820191906000526020600020905b8154815290600101906020018083116109ac57829003601f168201915b505050505081526020016006820160009054906101000a900460ff16151515158152505090508060c0015115610a94578060600151604051610a0b9190612a73565b6040518091039020816000015173ffffffffffffffffffffffffffffffffffffffff16826020015173ffffffffffffffffffffffffffffffffffffffff167f6f66afddd9ad75f62b2a2bd499c98ba95cca5d062e8c58634459692fcc76ae0384604001518560a00151604051610a82929190612aeb565b60405180910390a46001925050610a9a565b60009250505b50919050565b6000600682604051610ab29190612a73565b908152602001604051809103902060009054906101000a900473ffffffffffffffffffffffffffffffffffffffff169050919050565b610af0611fa8565b6000600460003373ffffffffffffffffffffffffffffffffffffffff1673ffffffffffffffffffffffffffffffffffffffff1681526020019081526020016000208054905011610b75576040517f08c379a0000000000000000000000000000000000000000000000000000000008152600401610b6c90612b6e565b60405180910390fd5b600582604051610b859190612a73565b90815260200160405180910390206040518060e00160405290816000820160009054906101000a900473ffffffffffffffffffffffffffffffffffffffff1673ffffffffffffffffffffffffffffffffffffffff1673ffffffffffffffffffffffffffffffffffffffff1681526020016001820160009054906101000a900473ffffffffffffffffffffffffffffffffffffffff1673ffffffffffffffffffffffffffffffffffffffff1673ffffffffffffffffffffffffffffffffffffffff168152602001600282018054610c5a90612ab9565b80601f0160208091040260200160405190810160405280929190818152602001828054610c8690612ab9565b8015610cd35780601f10610ca857610100808354040283529160200191610cd3565b820191906000526020600020905b815481529060010190602001808311610cb657829003601f168201915b50505050508152602001600382018054610cec90612ab9565b80601f0160208091040260200160405190810160405280929190818152602001828054610d1890612ab9565b8015610d655780601f10610d3a57610100808354040283529160200191610d65565b820191906000526020600020905b815481529060010190602001808311610d4857829003601f168201915b50505050508152602001600482018054610d7e90612ab9565b80601f0160208091040260200160405190810160405280929190818152602001828054610daa90612ab9565b8015610df75780601f10610dcc57610100808354040283529160200191610df7565b820191906000526020600020905b815481529060010190602001808311610dda57829003601f168201915b50505050508152602001600582018054610e1090612ab9565b80601f0160208091040260200160405190810160405280929190818152602001828054610e3c90612ab9565b8015610e895780601f10610e5e57610100808354040283529160200191610e89565b820191906000526020600020905b815481529060010190602001808311610e6c57829003601f168201915b505050505081526020016006820160009054906101000a900460ff1615151515815250509050919050565b6003806004811115610ec957610ec8612579565b5b600160003373ffffffffffffffffffffffffffffffffffffffff1673ffffffffffffffffffffffffffffffffffffffff16815260200190815260200160002060009054906101000a900460ff166004811115610f2857610f27612579565b5b1015610f69576040517f08c379a0000000000000000000000000000000000000000000000000000000008152600401610f6090612a17565b60405180910390fd5b3373ffffffffffffffffffffffffffffffffffffffff16600683604051610f909190612a73565b908152602001604051809103902060009054906101000a900473ffffffffffffffffffffffffffffffffffffffff1673ffffffffffffffffffffffffffffffffffffffff1614611015576040517f08c379a000000000000000000000000000000000000000000000000000000000815260040161100c90612bda565b60405180910390fd5b60005b600460008573ffffffffffffffffffffffffffffffffffffffff1673ffffffffffffffffffffffffffffffffffffffff168152602001908152602001600020805490508110156111b0578280519060200120600460008673ffffffffffffffffffffffffffffffffffffffff1673ffffffffffffffffffffffffffffffffffffffff16815260200190815260200160002082815481106110bb576110ba612bfa565b5b90600052602060002090600702016003016040516110d99190612cc8565b6040518091039020141561119d576000600460008673ffffffffffffffffffffffffffffffffffffffff1673ffffffffffffffffffffffffffffffffffffffff168152602001908152602001600020828154811061113a57611139612bfa565b5b906000526020600020906007020160060160006101000a81548160ff02191690831515021790555060006005846040516111749190612a73565b908152602001604051809103902060060160006101000a81548160ff0219169083151502179055505b80806111a890612d18565b915050611018565b50505050565b6111be612013565b600260008373ffffffffffffffffffffffffffffffffffffffff1673ffffffffffffffffffffffffffffffffffffffff1681526020019081526020016000206040518060800160405290816000820160009054906101000a900473ffffffffffffffffffffffffffffffffffffffff1673ffffffffffffffffffffffffffffffffffffffff1673ffffffffffffffffffffffffffffffffffffffff1681526020016000820160149054906101000a900460ff16600481111561128357611282612579565b5b600481111561129557611294612579565b5b81526020016001820180546112a990612ab9565b80601f01602080910402602001604051908101604052809291908181526020018280546112d590612ab9565b80156113225780601f106112f757610100808354040283529160200191611322565b820191906000526020600020905b81548152906001019060200180831161130557829003601f168201915b505050505081526020016002820160009054906101000a900460ff1615151515815250509050919050565b600380600481111561136257611361612579565b5b600160003373ffffffffffffffffffffffffffffffffffffffff1673ffffffffffffffffffffffffffffffffffffffff16815260200190815260200160002060009054906101000a900460ff1660048111156113c1576113c0612579565b5b1015611402576040517f08c379a00000000000000000000000000000000000000000000000000000000081526004016113f990612a17565b60405180910390fd5b60006040518060e001604052808873ffffffffffffffffffffffffffffffffffffffff1681526020013373ffffffffffffffffffffffffffffffffffffffff168152602001878152602001868152602001858152602001848152602001600115158152509050600460008873ffffffffffffffffffffffffffffffffffffffff1673ffffffffffffffffffffffffffffffffffffffff16815260200190815260200160002081908060018154018082558091505060019003906000526020600020906007020160009091909190915060008201518160000160006101000a81548173ffffffffffffffffffffffffffffffffffffffff021916908373ffffffffffffffffffffffffffffffffffffffff16021790555060208201518160010160006101000a81548173ffffffffffffffffffffffffffffffffffffffff021916908373ffffffffffffffffffffffffffffffffffffffff160217905550604082015181600201908051906020019061157b929190611f22565b506060820151816003019080519060200190611598929190611f22565b5060808201518160040190805190602001906115b5929190611f22565b5060a08201518160050190805190602001906115d2929190611f22565b5060c08201518160060160006101000a81548160ff0219169083151502179055505050806005866040516116069190612a73565b908152602001604051809103902060008201518160000160006101000a81548173ffffffffffffffffffffffffffffffffffffffff021916908373ffffffffffffffffffffffffffffffffffffffff16021790555060208201518160010160006101000a81548173ffffffffffffffffffffffffffffffffffffffff021916908373ffffffffffffffffffffffffffffffffffffffff16021790555060408201518160020190805190602001906116be929190611f22565b5060608201518160030190805190602001906116db929190611f22565b5060808201518160040190805190602001906116f8929190611f22565b5060a0820151816005019080519060200190611715929190611f22565b5060c08201518160060160006101000a81548160ff0219169083151502179055509050503360068660405161174a9190612a73565b908152602001604051809103902060006101000a81548173ffffffffffffffffffffffffffffffffffffffff021916908373ffffffffffffffffffffffffffffffffffffffff1602179055508673ffffffffffffffffffffffffffffffffffffffff167f47cc4ced4606cf64a6565f021a305c4cb93bfd53abc74f8321ff3552f6ab754a87876040516117de929190612aeb565b60405180910390a250505050505050565b60008060009054906101000a900473ffffffffffffffffffffffffffffffffffffffff16905090565b60008054906101000a900473ffffffffffffffffffffffffffffffffffffffff1681565b60016020528060005260406000206000915054906101000a900460ff1681565b60606000600460003373ffffffffffffffffffffffffffffffffffffffff1673ffffffffffffffffffffffffffffffffffffffff16815260200190815260200160002080549050116118e3576040517f08c379a00000000000000000000000000000000000000000000000000000000081526004016118da90612b6e565b60405180910390fd5b600460003373ffffffffffffffffffffffffffffffffffffffff1673ffffffffffffffffffffffffffffffffffffffff168152602001908152602001600020805480602002602001604051908101604052809291908181526020016000905b82821015611c8357838290600052602060002090600702016040518060e00160405290816000820160009054906101000a900473ffffffffffffffffffffffffffffffffffffffff1673ffffffffffffffffffffffffffffffffffffffff1673ffffffffffffffffffffffffffffffffffffffff1681526020016001820160009054906101000a900473ffffffffffffffffffffffffffffffffffffffff1673ffffffffffffffffffffffffffffffffffffffff1673ffffffffffffffffffffffffffffffffffffffff168152602001600282018054611a2190612ab9565b80601f0160208091040260200160405190810160405280929190818152602001828054611a4d90612ab9565b8015611a9a5780601f10611a6f57610100808354040283529160200191611a9a565b820191906000526020600020905b815481529060010190602001808311611a7d57829003601f168201915b50505050508152602001600382018054611ab390612ab9565b80601f0160208091040260200160405190810160405280929190818152602001828054611adf90612ab9565b8015611b2c5780601f10611b0157610100808354040283529160200191611b2c565b820191906000526020600020905b815481529060010190602001808311611b0f57829003601f168201915b50505050508152602001600482018054611b4590612ab9565b80601f0160208091040260200160405190810160405280929190818152602001828054611b7190612ab9565b8015611bbe5780601f10611b9357610100808354040283529160200191611bbe565b820191906000526020600020905b815481529060010190602001808311611ba157829003601f168201915b50505050508152602001600582018054611bd790612ab9565b80601f0160208091040260200160405190810160405280929190818152602001828054611c0390612ab9565b8015611c505780601f10611c2557610100808354040283529160200191611c50565b820191906000526020600020905b815481529060010190602001808311611c3357829003601f168201915b505050505081526020016006820160009054906101000a900460ff16151515158152505081526020019060010190611942565b50505050905090565b6060600360008373ffffffffffffffffffffffffffffffffffffffff1673ffffffffffffffffffffffffffffffffffffffff1681526020019081526020016000208054611cd890612ab9565b80601f0160208091040260200160405190810160405280929190818152602001828054611d0490612ab9565b8015611d515780601f10611d2657610100808354040283529160200191611d51565b820191906000526020600020905b815481529060010190602001808311611d3457829003601f168201915b50505050509050919050565b6004806004811115611d7257611d71612579565b5b600160003373ffffffffffffffffffffffffffffffffffffffff1673ffffffffffffffffffffffffffffffffffffffff16815260200190815260200160002060009054906101000a900460ff166004811115611dd157611dd0612579565b5b1015611e12576040517f08c379a0000000000000000000000000000000000000000000000000000000008152600401611e0990612a17565b60405180910390fd5b81600160008573ffffffffffffffffffffffffffffffffffffffff1673ffffffffffffffffffffffffffffffffffffffff16815260200190815260200160002060006101000a81548160ff02191690836004811115611e7457611e73612579565b5b02179055508273ffffffffffffffffffffffffffffffffffffffff167f4ac36fa53f167ceb85964be512e01de2a3b8bdb9862f917da079deeeff689b3883604051611ebf919061276f565b60405180910390a2505050565b6000600160008373ffffffffffffffffffffffffffffffffffffffff1673ffffffffffffffffffffffffffffffffffffffff16815260200190815260200160002060009054906101000a900460ff169050919050565b828054611f2e90612ab9565b90600052602060002090601f016020900481019282611f505760008555611f97565b82601f10611f6957805160ff1916838001178555611f97565b82800160010185558215611f97579182015b82811115611f96578251825591602001919060010190611f7b565b5b509050611fa49190612065565b5090565b6040518060e00160405280600073ffffffffffffffffffffffffffffffffffffffff168152602001600073ffffffffffffffffffffffffffffffffffffffff168152602001606081526020016060815260200160608152602001606081526020016000151581525090565b6040518060800160405280600073ffffffffffffffffffffffffffffffffffffffff1681526020016000600481111561204f5761204e612579565b5b8152602001606081526020016000151581525090565b5b8082111561207e576000816000905550600101612066565b5090565b6000604051905090565b600080fd5b600080fd5b600073ffffffffffffffffffffffffffffffffffffffff82169050919050565b60006120c182612096565b9050919050565b6120d1816120b6565b81146120dc57600080fd5b50565b6000813590506120ee816120c8565b92915050565b600080fd5b600080fd5b6000601f19601f8301169050919050565b7f4e487b7100000000000000000000000000000000000000000000000000000000600052604160045260246000fd5b612147826120fe565b810181811067ffffffffffffffff821117156121665761216561210f565b5b80604052505050565b6000612179612082565b9050612185828261213e565b919050565b600067ffffffffffffffff8211156121a5576121a461210f565b5b6121ae826120fe565b9050602081019050919050565b82818337600083830152505050565b60006121dd6121d88461218a565b61216f565b9050828152602081018484840111156121f9576121f86120f9565b5b6122048482856121bb565b509392505050565b600082601f830112612221576122206120f4565b5b81356122318482602086016121ca565b91505092915050565b6005811061224757600080fd5b50565b6000813590506122598161223a565b92915050565b6000806000606084860312156122785761227761208c565b5b6000612286868287016120df565b935050602084013567ffffffffffffffff8111156122a7576122a6612091565b5b6122b38682870161220c565b92505060406122c48682870161224a565b9150509250925092565b6000602082840312156122e4576122e361208c565b5b600082013567ffffffffffffffff81111561230257612301612091565b5b61230e8482850161220c565b91505092915050565b60008115159050919050565b61232c81612317565b82525050565b60006020820190506123476000830184612323565b92915050565b612356816120b6565b82525050565b6000602082019050612371600083018461234d565b92915050565b612380816120b6565b82525050565b600081519050919050565b600082825260208201905092915050565b60005b838110156123c05780820151818401526020810190506123a5565b838111156123cf576000848401525b50505050565b60006123e082612386565b6123ea8185612391565b93506123fa8185602086016123a2565b612403816120fe565b840191505092915050565b61241781612317565b82525050565b600060e0830160008301516124356000860182612377565b5060208301516124486020860182612377565b506040830151848203604086015261246082826123d5565b9150506060830151848203606086015261247a82826123d5565b9150506080830151848203608086015261249482826123d5565b91505060a083015184820360a08601526124ae82826123d5565b91505060c08301516124c360c086018261240e565b508091505092915050565b600060208201905081810360008301526124e8818461241d565b905092915050565b600080604083850312156125075761250661208c565b5b6000612515858286016120df565b925050602083013567ffffffffffffffff81111561253657612535612091565b5b6125428582860161220c565b9150509250929050565b6000602082840312156125625761256161208c565b5b6000612570848285016120df565b91505092915050565b7f4e487b7100000000000000000000000000000000000000000000000000000000600052602160045260246000fd5b600581106125b9576125b8612579565b5b50565b60008190506125ca826125a8565b919050565b60006125da826125bc565b9050919050565b6125ea816125cf565b82525050565b60006080830160008301516126086000860182612377565b50602083015161261b60208601826125e1565b506040830151848203604086015261263382826123d5565b9150506060830151612648606086018261240e565b508091505092915050565b6000602082019050818103600083015261266d81846125f0565b905092915050565b600080600080600060a086880312156126915761269061208c565b5b600061269f888289016120df565b955050602086013567ffffffffffffffff8111156126c0576126bf612091565b5b6126cc8882890161220c565b945050604086013567ffffffffffffffff8111156126ed576126ec612091565b5b6126f98882890161220c565b935050606086013567ffffffffffffffff81111561271a57612719612091565b5b6127268882890161220c565b925050608086013567ffffffffffffffff81111561274757612746612091565b5b6127538882890161220c565b9150509295509295909350565b612769816125cf565b82525050565b60006020820190506127846000830184612760565b92915050565b600081519050919050565b600082825260208201905092915050565b6000819050602082019050919050565b600060e0830160008301516127ce6000860182612377565b5060208301516127e16020860182612377565b50604083015184820360408601526127f982826123d5565b9150506060830151848203606086015261281382826123d5565b9150506080830151848203608086015261282d82826123d5565b91505060a083015184820360a086015261284782826123d5565b91505060c083015161285c60c086018261240e565b508091505092915050565b600061287383836127b6565b905092915050565b6000602082019050919050565b60006128938261278a565b61289d8185612795565b9350836020820285016128af856127a6565b8060005b858110156128eb57848403895281516128cc8582612867565b94506128d78361287b565b925060208a019950506001810190506128b3565b50829750879550505050505092915050565b600060208201905081810360008301526129178184612888565b905092915050565b600082825260208201905092915050565b600061293b82612386565b612945818561291f565b93506129558185602086016123a2565b61295e816120fe565b840191505092915050565b600060208201905081810360008301526129838184612930565b905092915050565b600080604083850312156129a2576129a161208c565b5b60006129b0858286016120df565b92505060206129c18582860161224a565b9150509250929050565b7f596f752061726520756e617574686f72697a6500000000000000000000000000600082015250565b6000612a0160138361291f565b9150612a0c826129cb565b602082019050919050565b60006020820190508181036000830152612a30816129f4565b9050919050565b600081905092915050565b6000612a4d82612386565b612a578185612a37565b9350612a678185602086016123a2565b80840191505092915050565b6000612a7f8284612a42565b915081905092915050565b7f4e487b7100000000000000000000000000000000000000000000000000000000600052602260045260246000fd5b60006002820490506001821680612ad157607f821691505b60208210811415612ae557612ae4612a8a565b5b50919050565b60006040820190508181036000830152612b058185612930565b90508181036020830152612b198184612930565b90509392505050565b7f556e617574686f72697a65206163636573730000000000000000000000000000600082015250565b6000612b5860128361291f565b9150612b6382612b22565b602082019050919050565b60006020820190508181036000830152612b8781612b4b565b9050919050565b7f556e617574686f72697a6520746f206d616465206368616e6765730000000000600082015250565b6000612bc4601b8361291f565b9150612bcf82612b8e565b602082019050919050565b60006020820190508181036000830152612bf381612bb7565b9050919050565b7f4e487b7100000000000000000000000000000000000000000000000000000000600052603260045260246000fd5b600081905092915050565b60008190508160005260206000209050919050565b60008154612c5681612ab9565b612c608186612c29565b94506001821660008114612c7b5760018114612c8c57612cbf565b60ff19831686528186019350612cbf565b612c9585612c34565b60005b83811015612cb757815481890152600182019150602081019050612c98565b838801955050505b50505092915050565b6000612cd48284612c49565b915081905092915050565b7f4e487b7100000000000000000000000000000000000000000000000000000000600052601160045260246000fd5b6000819050919050565b6000612d2382612d0e565b91507fffffffffffffffffffffffffffffffffffffffffffffffffffffffffffffffff821415612d5657612d55612cdf565b5b60018201905091905056fea2646970667358221220f69cf725f76fd9d69a47f6116bc44aa8465e14ba4db7e0ebd3c41c6d69b4ae7864736f6c63430008080033",
  "devdoc": {
    "kind": "dev",
    "methods": {},
    "version": 1
  },
  "userdoc": {
    "kind": "user",
    "methods": {},
    "version": 1
  },
  "storageLayout": {
    "storage": [
      {
        "astId": 3,
        "contract": "contracts/Certificate.sol:Certificate",
        "label": "owner",
        "offset": 0,
        "slot": "0",
        "type": "t_address"
      },
      {
        "astId": 72,
        "contract": "contracts/Certificate.sol:Certificate",
        "label": "userPermission",
        "offset": 0,
        "slot": "1",
        "type": "t_mapping(t_address,t_enum(Role_Access)9)"
      },
      {
        "astId": 77,
        "contract": "contracts/Certificate.sol:Certificate",
        "label": "userDetail",
        "offset": 0,
        "slot": "2",
        "type": "t_mapping(t_address,t_struct(User)52_storage)"
      },
      {
        "astId": 81,
        "contract": "contracts/Certificate.sol:Certificate",
        "label": "apiKeys",
        "offset": 0,
        "slot": "3",
        "type": "t_mapping(t_address,t_string_storage)"
      },
      {
        "astId": 87,
        "contract": "contracts/Certificate.sol:Certificate",
        "label": "userCertificates",
        "offset": 0,
        "slot": "4",
        "type": "t_mapping(t_address,t_array(t_struct(CertificateDetail)67_storage)dyn_storage)"
      },
      {
        "astId": 92,
        "contract": "contracts/Certificate.sol:Certificate",
        "label": "certificateDetails",
        "offset": 0,
        "slot": "5",
        "type": "t_mapping(t_string_memory_ptr,t_struct(CertificateDetail)67_storage)"
      },
      {
        "astId": 96,
        "contract": "contracts/Certificate.sol:Certificate",
        "label": "certificateIssuer",
        "offset": 0,
        "slot": "6",
        "type": "t_mapping(t_string_memory_ptr,t_address)"
      }
    ],
    "types": {
      "t_address": {
        "encoding": "inplace",
        "label": "address",
        "numberOfBytes": "20"
      },
      "t_array(t_struct(CertificateDetail)67_storage)dyn_storage": {
        "base": "t_struct(CertificateDetail)67_storage",
        "encoding": "dynamic_array",
        "label": "struct Certificate.CertificateDetail[]",
        "numberOfBytes": "32"
      },
      "t_bool": {
        "encoding": "inplace",
        "label": "bool",
        "numberOfBytes": "1"
      },
      "t_enum(Role_Access)9": {
        "encoding": "inplace",
        "label": "enum Certificate.Role_Access",
        "numberOfBytes": "1"
      },
      "t_mapping(t_address,t_array(t_struct(CertificateDetail)67_storage)dyn_storage)": {
        "encoding": "mapping",
        "key": "t_address",
        "label": "mapping(address => struct Certificate.CertificateDetail[])",
        "numberOfBytes": "32",
        "value": "t_array(t_struct(CertificateDetail)67_storage)dyn_storage"
      },
      "t_mapping(t_address,t_enum(Role_Access)9)": {
        "encoding": "mapping",
        "key": "t_address",
        "label": "mapping(address => enum Certificate.Role_Access)",
        "numberOfBytes": "32",
        "value": "t_enum(Role_Access)9"
      },
      "t_mapping(t_address,t_string_storage)": {
        "encoding": "mapping",
        "key": "t_address",
        "label": "mapping(address => string)",
        "numberOfBytes": "32",
        "value": "t_string_storage"
      },
      "t_mapping(t_address,t_struct(User)52_storage)": {
        "encoding": "mapping",
        "key": "t_address",
        "label": "mapping(address => struct Certificate.User)",
        "numberOfBytes": "32",
        "value": "t_struct(User)52_storage"
      },
      "t_mapping(t_string_memory_ptr,t_address)": {
        "encoding": "mapping",
        "key": "t_string_memory_ptr",
        "label": "mapping(string => address)",
        "numberOfBytes": "32",
        "value": "t_address"
      },
      "t_mapping(t_string_memory_ptr,t_struct(CertificateDetail)67_storage)": {
        "encoding": "mapping",
        "key": "t_string_memory_ptr",
        "label": "mapping(string => struct Certificate.CertificateDetail)",
        "numberOfBytes": "32",
        "value": "t_struct(CertificateDetail)67_storage"
      },
      "t_string_memory_ptr": {
        "encoding": "bytes",
        "label": "string",
        "numberOfBytes": "32"
      },
      "t_string_storage": {
        "encoding": "bytes",
        "label": "string",
        "numberOfBytes": "32"
      },
      "t_struct(CertificateDetail)67_storage": {
        "encoding": "inplace",
        "label": "struct Certificate.CertificateDetail",
        "members": [
          {
            "astId": 54,
            "contract": "contracts/Certificate.sol:Certificate",
            "label": "owner",
            "offset": 0,
            "slot": "0",
            "type": "t_address"
          },
          {
            "astId": 56,
            "contract": "contracts/Certificate.sol:Certificate",
            "label": "issuer",
            "offset": 0,
            "slot": "1",
            "type": "t_address"
          },
          {
            "astId": 58,
            "contract": "contracts/Certificate.sol:Certificate",
            "label": "documentUrl",
            "offset": 0,
            "slot": "2",
            "type": "t_string_storage"
          },
          {
            "astId": 60,
            "contract": "contracts/Certificate.sol:Certificate",
            "label": "uniqueId",
            "offset": 0,
            "slot": "3",
            "type": "t_string_storage"
          },
          {
            "astId": 62,
            "contract": "contracts/Certificate.sol:Certificate",
            "label": "courseId",
            "offset": 0,
            "slot": "4",
            "type": "t_string_storage"
          },
          {
            "astId": 64,
            "contract": "contracts/Certificate.sol:Certificate",
            "label": "remarks",
            "offset": 0,
            "slot": "5",
            "type": "t_string_storage"
          },
          {
            "astId": 66,
            "contract": "contracts/Certificate.sol:Certificate",
            "label": "isValid",
            "offset": 0,
            "slot": "6",
            "type": "t_bool"
          }
        ],
        "numberOfBytes": "224"
      },
      "t_struct(User)52_storage": {
        "encoding": "inplace",
        "label": "struct Certificate.User",
        "members": [
          {
            "astId": 44,
            "contract": "contracts/Certificate.sol:Certificate",
            "label": "userId",
            "offset": 0,
            "slot": "0",
            "type": "t_address"
          },
          {
            "astId": 47,
            "contract": "contracts/Certificate.sol:Certificate",
            "label": "role_assigned",
            "offset": 20,
            "slot": "0",
            "type": "t_enum(Role_Access)9"
          },
          {
            "astId": 49,
            "contract": "contracts/Certificate.sol:Certificate",
            "label": "universityName",
            "offset": 0,
            "slot": "1",
            "type": "t_string_storage"
          },
          {
            "astId": 51,
            "contract": "contracts/Certificate.sol:Certificate",
            "label": "isValid",
            "offset": 0,
            "slot": "2",
            "type": "t_bool"
          }
        ],
        "numberOfBytes": "96"
      }
    }
  }
}