{
  "address": "0x5FbDB2315678afecb367f032d93F642f64180aa3",
  "abi": [
    {
      "inputs": [],
      "stateMutability": "nonpayable",
      "type": "constructor"
    },
    {
      "anonymous": false,
      "inputs": [
        {
          "indexed": true,
          "internalType": "address",
          "name": "user",
          "type": "address"
        },
        {
          "indexed": false,
          "internalType": "string",
          "name": "apiKey",
          "type": "string"
        }
      ],
      "name": "ApiGenerates",
      "type": "event"
    },
    {
      "anonymous": false,
      "inputs": [
        {
          "indexed": true,
          "internalType": "address",
          "name": "_owner",
          "type": "address"
        },
        {
          "indexed": false,
          "internalType": "string",
          "name": "documentUrl",
          "type": "string"
        },
        {
          "indexed": false,
          "internalType": "string",
          "name": "uniqueId",
          "type": "string"
        }
      ],
      "name": "CertificateIssued",
      "type": "event"
    },
    {
      "anonymous": false,
      "inputs": [
        {
          "indexed": true,
          "internalType": "address",
          "name": "_issuer",
          "type": "address"
        },
        {
          "indexed": true,
          "internalType": "address",
          "name": "_owner",
          "type": "address"
        },
        {
          "indexed": false,
          "internalType": "string",
          "name": "documentUrl",
          "type": "string"
        },
        {
          "indexed": true,
          "internalType": "string",
          "name": "uniqueId",
          "type": "string"
        },
        {
          "indexed": false,
          "internalType": "string",
          "name": "remarks",
          "type": "string"
        }
      ],
      "name": "CertificateValidate",
      "type": "event"
    },
    {
      "anonymous": false,
      "inputs": [
        {
          "indexed": true,
          "internalType": "address",
          "name": "user",
          "type": "address"
        },
        {
          "indexed": false,
          "internalType": "enum Certificate.Role_Access",
          "name": "role_assigned",
          "type": "uint8"
        }
      ],
      "name": "RoleAssigned",
      "type": "event"
    },
    {
      "inputs": [
        {
          "internalType": "address",
          "name": "_student",
          "type": "address"
        },
        {
          "internalType": "string",
          "name": "_certId",
          "type": "string"
        }
      ],
      "name": "discardCertficate",
      "outputs": [],
      "stateMutability": "nonpayable",
      "type": "function"
    },
    {
      "inputs": [
        {
          "internalType": "address",
          "name": "_user",
          "type": "address"
        },
        {
          "internalType": "string",
          "name": "_universityName",
          "type": "string"
        },
        {
          "internalType": "enum Certificate.Role_Access",
          "name": "_role",
          "type": "uint8"
        }
      ],
      "name": "generateApiKey",
      "outputs": [],
      "stateMutability": "nonpayable",
      "type": "function"
    },
    {
      "inputs": [
        {
          "internalType": "address",
          "name": "_owner",
          "type": "address"
        },
        {
          "internalType": "string",
          "name": "_documentUrl",
          "type": "string"
        },
        {
          "internalType": "string",
          "name": "_uniqueId",
          "type": "string"
        },
        {
          "internalType": "string",
          "name": "_courseId",
          "type": "string"
        },
        {
          "internalType": "string",
          "name": "_remark",
          "type": "string"
        }
      ],
      "name": "generateCertificate",
      "outputs": [],
      "stateMutability": "nonpayable",
      "type": "function"
    },
    {
      "inputs": [
        {
          "internalType": "string",
          "name": "_certId",
          "type": "string"
        }
      ],
      "name": "getCertificateDetail",
      "outputs": [
        {
          "components": [
            {
              "internalType": "address",
              "name": "owner",
              "type": "address"
            },
            {
              "internalType": "address",
              "name": "issuer",
              "type": "address"
            },
            {
              "internalType": "string",
              "name": "documentUrl",
              "type": "string"
            },
            {
              "internalType": "string",
              "name": "uniqueId",
              "type": "string"
            },
            {
              "internalType": "string",
              "name": "courseId",
              "type": "string"
            },
            {
              "internalType": "string",
              "name": "remarks",
              "type": "string"
            },
            {
              "internalType": "bool",
              "name": "isValid",
              "type": "bool"
            }
          ],
          "internalType": "struct Certificate.CertificateDetail",
          "name": "",
          "type": "tuple"
        }
      ],
      "stateMutability": "view",
      "type": "function"
    },
    {
      "inputs": [],
      "name": "getMyAllCertificates",
      "outputs": [
        {
          "components": [
            {
              "internalType": "address",
              "name": "owner",
              "type": "address"
            },
            {
              "internalType": "address",
              "name": "issuer",
              "type": "address"
            },
            {
              "internalType": "string",
              "name": "documentUrl",
              "type": "string"
            },
            {
              "internalType": "string",
              "name": "uniqueId",
              "type": "string"
            },
            {
              "internalType": "string",
              "name": "courseId",
              "type": "string"
            },
            {
              "internalType": "string",
              "name": "remarks",
              "type": "string"
            },
            {
              "internalType": "bool",
              "name": "isValid",
              "type": "bool"
            }
          ],
          "internalType": "struct Certificate.CertificateDetail[]",
          "name": "",
          "type": "tuple[]"
        }
      ],
      "stateMutability": "view",
      "type": "function"
    },
    {
      "inputs": [
        {
          "internalType": "address",
          "name": "_user",
          "type": "address"
        },
        {
          "internalType": "enum Certificate.Role_Access",
          "name": "_newRole",
          "type": "uint8"
        }
      ],
      "name": "modifyRole",
      "outputs": [],
      "stateMutability": "nonpayable",
      "type": "function"
    },
    {
      "inputs": [],
      "name": "owner",
      "outputs": [
        {
          "internalType": "address",
          "name": "",
          "type": "address"
        }
      ],
      "stateMutability": "view",
      "type": "function"
    },
    {
      "inputs": [
        {
          "internalType": "address",
          "name": "",
          "type": "address"
        }
      ],
      "name": "userPermission",
      "outputs": [
        {
          "internalType": "enum Certificate.Role_Access",
          "name": "",
          "type": "uint8"
        }
      ],
      "stateMutability": "view",
      "type": "function"
    },
    {
      "inputs": [
        {
          "internalType": "string",
          "name": "_certId",
          "type": "string"
        }
      ],
      "name": "validateCertificate",
      "outputs": [
        {
          "internalType": "bool",
          "name": "",
          "type": "bool"
        }
      ],
      "stateMutability": "nonpayable",
      "type": "function"
    }
  ],
  "transactionHash": "0xcc8d48c816c52db2632f3fe9d40391186b6bd8f5bbed817b64e7091f419ebd18",
  "args": [],
  "numDeployments": 1,
  "solcInputHash": "5325c25e6b6cb741b601b47f5edecd5b",
  "bytecode": "0x60806040523480156200001157600080fd5b50336000806101000a81548173ffffffffffffffffffffffffffffffffffffffff021916908373ffffffffffffffffffffffffffffffffffffffff1602179055506004600160003373ffffffffffffffffffffffffffffffffffffffff1673ffffffffffffffffffffffffffffffffffffffff16815260200190815260200160002060006101000a81548160ff02191690836004811115620000b857620000b762000114565b5b02179055503373ffffffffffffffffffffffffffffffffffffffff167f4ac36fa53f167ceb85964be512e01de2a3b8bdb9862f917da079deeeff689b38600460405162000106919062000194565b60405180910390a2620001b1565b7f4e487b7100000000000000000000000000000000000000000000000000000000600052602160045260246000fd5b6005811062000157576200015662000114565b5b50565b60008190506200016a8262000143565b919050565b60006200017c826200015a565b9050919050565b6200018e816200016f565b82525050565b6000602082019050620001ab600083018462000183565b92915050565b61282b80620001c16000396000f3fe608060405234801561001057600080fd5b50600436106100935760003560e01c80636f7cf028116100665780636f7cf02814610132578063866551391461014e5780638da5cb5b1461016a578063970cca0114610188578063e9c1847e146101b857610093565b806303512796146100985780630762bb68146100b45780632df68d72146100d25780634b2a799314610102575b600080fd5b6100b260048036038101906100ad9190611da9565b6101d4565b005b6100bc6104c7565b6040516100c9919061203d565b60405180910390f35b6100ec60048036038101906100e7919061205f565b6108f7565b6040516100f991906120b7565b60405180910390f35b61011c6004803603810190610117919061205f565b610d9b565b6040516101299190612183565b60405180910390f35b61014c600480360381019061014791906121a5565b611167565b005b61016860048036038101906101639190612201565b611469565b005b61017261190b565b60405161017f91906122fb565b60405180910390f35b6101a2600480360381019061019d9190612316565b61192f565b6040516101af91906123ba565b60405180910390f35b6101d260048036038101906101cd91906123d5565b61194f565b005b60048060048111156101e9576101e8612343565b5b600160003373ffffffffffffffffffffffffffffffffffffffff1673ffffffffffffffffffffffffffffffffffffffff16815260200190815260200160002060009054906101000a900460ff16600481111561024857610247612343565b5b1015610289576040517f08c379a000000000000000000000000000000000000000000000000000000000815260040161028090612472565b60405180910390fd5b600060405180608001604052808673ffffffffffffffffffffffffffffffffffffffff1681526020018460048111156102c5576102c4612343565b5b815260200185815260200160011515815250905080600260008773ffffffffffffffffffffffffffffffffffffffff1673ffffffffffffffffffffffffffffffffffffffff16815260200190815260200160002060008201518160000160006101000a81548173ffffffffffffffffffffffffffffffffffffffff021916908373ffffffffffffffffffffffffffffffffffffffff16021790555060208201518160000160146101000a81548160ff0219169083600481111561038b5761038a612343565b5b021790555060408201518160010190805190602001906103ac929190611abe565b5060608201518160020160006101000a81548160ff02191690831515021790555090505082600160008773ffffffffffffffffffffffffffffffffffffffff1673ffffffffffffffffffffffffffffffffffffffff16815260200190815260200160002060006101000a81548160ff0219169083600481111561043257610431612343565b5b02179055506040518060400160405280600b81526020017f6170695f6b65795f677475000000000000000000000000000000000000000000815250600360008773ffffffffffffffffffffffffffffffffffffffff1673ffffffffffffffffffffffffffffffffffffffff16815260200190815260200160002090805190602001906104bf929190611abe565b505050505050565b60606000600460003373ffffffffffffffffffffffffffffffffffffffff1673ffffffffffffffffffffffffffffffffffffffff168152602001908152602001600020805490501161054e576040517f08c379a0000000000000000000000000000000000000000000000000000000008152600401610545906124de565b60405180910390fd5b600460003373ffffffffffffffffffffffffffffffffffffffff1673ffffffffffffffffffffffffffffffffffffffff168152602001908152602001600020805480602002602001604051908101604052809291908181526020016000905b828210156108ee57838290600052602060002090600702016040518060e00160405290816000820160009054906101000a900473ffffffffffffffffffffffffffffffffffffffff1673ffffffffffffffffffffffffffffffffffffffff1673ffffffffffffffffffffffffffffffffffffffff1681526020016001820160009054906101000a900473ffffffffffffffffffffffffffffffffffffffff1673ffffffffffffffffffffffffffffffffffffffff1673ffffffffffffffffffffffffffffffffffffffff16815260200160028201805461068c9061252d565b80601f01602080910402602001604051908101604052809291908181526020018280546106b89061252d565b80156107055780601f106106da57610100808354040283529160200191610705565b820191906000526020600020905b8154815290600101906020018083116106e857829003601f168201915b5050505050815260200160038201805461071e9061252d565b80601f016020809104026020016040519081016040528092919081815260200182805461074a9061252d565b80156107975780601f1061076c57610100808354040283529160200191610797565b820191906000526020600020905b81548152906001019060200180831161077a57829003601f168201915b505050505081526020016004820180546107b09061252d565b80601f01602080910402602001604051908101604052809291908181526020018280546107dc9061252d565b80156108295780601f106107fe57610100808354040283529160200191610829565b820191906000526020600020905b81548152906001019060200180831161080c57829003601f168201915b505050505081526020016005820180546108429061252d565b80601f016020809104026020016040519081016040528092919081815260200182805461086e9061252d565b80156108bb5780601f10610890576101008083540402835291602001916108bb565b820191906000526020600020905b81548152906001019060200180831161089e57829003601f168201915b505050505081526020016006820160009054906101000a900460ff161515151581525050815260200190600101906105ad565b50505050905090565b6000600280600481111561090e5761090d612343565b5b600160003373ffffffffffffffffffffffffffffffffffffffff1673ffffffffffffffffffffffffffffffffffffffff16815260200190815260200160002060009054906101000a900460ff16600481111561096d5761096c612343565b5b10156109ae576040517f08c379a00000000000000000000000000000000000000000000000000000000081526004016109a590612472565b60405180910390fd5b60006005846040516109c0919061259b565b90815260200160405180910390206040518060e00160405290816000820160009054906101000a900473ffffffffffffffffffffffffffffffffffffffff1673ffffffffffffffffffffffffffffffffffffffff1673ffffffffffffffffffffffffffffffffffffffff1681526020016001820160009054906101000a900473ffffffffffffffffffffffffffffffffffffffff1673ffffffffffffffffffffffffffffffffffffffff1673ffffffffffffffffffffffffffffffffffffffff168152602001600282018054610a959061252d565b80601f0160208091040260200160405190810160405280929190818152602001828054610ac19061252d565b8015610b0e5780601f10610ae357610100808354040283529160200191610b0e565b820191906000526020600020905b815481529060010190602001808311610af157829003601f168201915b50505050508152602001600382018054610b279061252d565b80601f0160208091040260200160405190810160405280929190818152602001828054610b539061252d565b8015610ba05780601f10610b7557610100808354040283529160200191610ba0565b820191906000526020600020905b815481529060010190602001808311610b8357829003601f168201915b50505050508152602001600482018054610bb99061252d565b80601f0160208091040260200160405190810160405280929190818152602001828054610be59061252d565b8015610c325780601f10610c0757610100808354040283529160200191610c32565b820191906000526020600020905b815481529060010190602001808311610c1557829003601f168201915b50505050508152602001600582018054610c4b9061252d565b80601f0160208091040260200160405190810160405280929190818152602001828054610c779061252d565b8015610cc45780601f10610c9957610100808354040283529160200191610cc4565b820191906000526020600020905b815481529060010190602001808311610ca757829003601f168201915b505050505081526020016006820160009054906101000a900460ff16151515158152505090508060c0015115610d8f578060600151604051610d06919061259b565b6040518091039020816000015173ffffffffffffffffffffffffffffffffffffffff16826020015173ffffffffffffffffffffffffffffffffffffffff167f6f66afddd9ad75f62b2a2bd499c98ba95cca5d062e8c58634459692fcc76ae0384604001518560a00151604051610d7d9291906125eb565b60405180910390a46001925050610d95565b60009250505b50919050565b610da3611b44565b6000600460003373ffffffffffffffffffffffffffffffffffffffff1673ffffffffffffffffffffffffffffffffffffffff1681526020019081526020016000208054905011610e28576040517f08c379a0000000000000000000000000000000000000000000000000000000008152600401610e1f906124de565b60405180910390fd5b600582604051610e38919061259b565b90815260200160405180910390206040518060e00160405290816000820160009054906101000a900473ffffffffffffffffffffffffffffffffffffffff1673ffffffffffffffffffffffffffffffffffffffff1673ffffffffffffffffffffffffffffffffffffffff1681526020016001820160009054906101000a900473ffffffffffffffffffffffffffffffffffffffff1673ffffffffffffffffffffffffffffffffffffffff1673ffffffffffffffffffffffffffffffffffffffff168152602001600282018054610f0d9061252d565b80601f0160208091040260200160405190810160405280929190818152602001828054610f399061252d565b8015610f865780601f10610f5b57610100808354040283529160200191610f86565b820191906000526020600020905b815481529060010190602001808311610f6957829003601f168201915b50505050508152602001600382018054610f9f9061252d565b80601f0160208091040260200160405190810160405280929190818152602001828054610fcb9061252d565b80156110185780601f10610fed57610100808354040283529160200191611018565b820191906000526020600020905b815481529060010190602001808311610ffb57829003601f168201915b505050505081526020016004820180546110319061252d565b80601f016020809104026020016040519081016040528092919081815260200182805461105d9061252d565b80156110aa5780601f1061107f576101008083540402835291602001916110aa565b820191906000526020600020905b81548152906001019060200180831161108d57829003601f168201915b505050505081526020016005820180546110c39061252d565b80601f01602080910402602001604051908101604052809291908181526020018280546110ef9061252d565b801561113c5780601f106111115761010080835404028352916020019161113c565b820191906000526020600020905b81548152906001019060200180831161111f57829003601f168201915b505050505081526020016006820160009054906101000a900460ff1615151515815250509050919050565b600380600481111561117c5761117b612343565b5b600160003373ffffffffffffffffffffffffffffffffffffffff1673ffffffffffffffffffffffffffffffffffffffff16815260200190815260200160002060009054906101000a900460ff1660048111156111db576111da612343565b5b101561121c576040517f08c379a000000000000000000000000000000000000000000000000000000000815260040161121390612472565b60405180910390fd5b3373ffffffffffffffffffffffffffffffffffffffff16600683604051611243919061259b565b908152602001604051809103902060009054906101000a900473ffffffffffffffffffffffffffffffffffffffff1673ffffffffffffffffffffffffffffffffffffffff16146112c8576040517f08c379a00000000000000000000000000000000000000000000000000000000081526004016112bf9061266e565b60405180910390fd5b60005b600460008573ffffffffffffffffffffffffffffffffffffffff1673ffffffffffffffffffffffffffffffffffffffff16815260200190815260200160002080549050811015611463578280519060200120600460008673ffffffffffffffffffffffffffffffffffffffff1673ffffffffffffffffffffffffffffffffffffffff168152602001908152602001600020828154811061136e5761136d61268e565b5b906000526020600020906007020160030160405161138c919061275c565b60405180910390201415611450576000600460008673ffffffffffffffffffffffffffffffffffffffff1673ffffffffffffffffffffffffffffffffffffffff16815260200190815260200160002082815481106113ed576113ec61268e565b5b906000526020600020906007020160060160006101000a81548160ff0219169083151502179055506000600584604051611427919061259b565b908152602001604051809103902060060160006101000a81548160ff0219169083151502179055505b808061145b906127ac565b9150506112cb565b50505050565b600380600481111561147e5761147d612343565b5b600160003373ffffffffffffffffffffffffffffffffffffffff1673ffffffffffffffffffffffffffffffffffffffff16815260200190815260200160002060009054906101000a900460ff1660048111156114dd576114dc612343565b5b101561151e576040517f08c379a000000000000000000000000000000000000000000000000000000000815260040161151590612472565b60405180910390fd5b60006040518060e001604052808873ffffffffffffffffffffffffffffffffffffffff1681526020013373ffffffffffffffffffffffffffffffffffffffff168152602001878152602001868152602001858152602001848152602001600115158152509050600460008873ffffffffffffffffffffffffffffffffffffffff1673ffffffffffffffffffffffffffffffffffffffff16815260200190815260200160002081908060018154018082558091505060019003906000526020600020906007020160009091909190915060008201518160000160006101000a81548173ffffffffffffffffffffffffffffffffffffffff021916908373ffffffffffffffffffffffffffffffffffffffff16021790555060208201518160010160006101000a81548173ffffffffffffffffffffffffffffffffffffffff021916908373ffffffffffffffffffffffffffffffffffffffff1602179055506040820151816002019080519060200190611697929190611abe565b5060608201518160030190805190602001906116b4929190611abe565b5060808201518160040190805190602001906116d1929190611abe565b5060a08201518160050190805190602001906116ee929190611abe565b5060c08201518160060160006101000a81548160ff021916908315150217905550505080600586604051611722919061259b565b908152602001604051809103902060008201518160000160006101000a81548173ffffffffffffffffffffffffffffffffffffffff021916908373ffffffffffffffffffffffffffffffffffffffff16021790555060208201518160010160006101000a81548173ffffffffffffffffffffffffffffffffffffffff021916908373ffffffffffffffffffffffffffffffffffffffff16021790555060408201518160020190805190602001906117da929190611abe565b5060608201518160030190805190602001906117f7929190611abe565b506080820151816004019080519060200190611814929190611abe565b5060a0820151816005019080519060200190611831929190611abe565b5060c08201518160060160006101000a81548160ff02191690831515021790555090505033600686604051611866919061259b565b908152602001604051809103902060006101000a81548173ffffffffffffffffffffffffffffffffffffffff021916908373ffffffffffffffffffffffffffffffffffffffff1602179055508673ffffffffffffffffffffffffffffffffffffffff167f47cc4ced4606cf64a6565f021a305c4cb93bfd53abc74f8321ff3552f6ab754a87876040516118fa9291906125eb565b60405180910390a250505050505050565b60008054906101000a900473ffffffffffffffffffffffffffffffffffffffff1681565b60016020528060005260406000206000915054906101000a900460ff1681565b600480600481111561196457611963612343565b5b600160003373ffffffffffffffffffffffffffffffffffffffff1673ffffffffffffffffffffffffffffffffffffffff16815260200190815260200160002060009054906101000a900460ff1660048111156119c3576119c2612343565b5b1015611a04576040517f08c379a00000000000000000000000000000000000000000000000000000000081526004016119fb90612472565b60405180910390fd5b81600160008573ffffffffffffffffffffffffffffffffffffffff1673ffffffffffffffffffffffffffffffffffffffff16815260200190815260200160002060006101000a81548160ff02191690836004811115611a6657611a65612343565b5b02179055508273ffffffffffffffffffffffffffffffffffffffff167f4ac36fa53f167ceb85964be512e01de2a3b8bdb9862f917da079deeeff689b3883604051611ab191906123ba565b60405180910390a2505050565b828054611aca9061252d565b90600052602060002090601f016020900481019282611aec5760008555611b33565b82601f10611b0557805160ff1916838001178555611b33565b82800160010185558215611b33579182015b82811115611b32578251825591602001919060010190611b17565b5b509050611b409190611baf565b5090565b6040518060e00160405280600073ffffffffffffffffffffffffffffffffffffffff168152602001600073ffffffffffffffffffffffffffffffffffffffff168152602001606081526020016060815260200160608152602001606081526020016000151581525090565b5b80821115611bc8576000816000905550600101611bb0565b5090565b6000604051905090565b600080fd5b600080fd5b600073ffffffffffffffffffffffffffffffffffffffff82169050919050565b6000611c0b82611be0565b9050919050565b611c1b81611c00565b8114611c2657600080fd5b50565b600081359050611c3881611c12565b92915050565b600080fd5b600080fd5b6000601f19601f8301169050919050565b7f4e487b7100000000000000000000000000000000000000000000000000000000600052604160045260246000fd5b611c9182611c48565b810181811067ffffffffffffffff82111715611cb057611caf611c59565b5b80604052505050565b6000611cc3611bcc565b9050611ccf8282611c88565b919050565b600067ffffffffffffffff821115611cef57611cee611c59565b5b611cf882611c48565b9050602081019050919050565b82818337600083830152505050565b6000611d27611d2284611cd4565b611cb9565b905082815260208101848484011115611d4357611d42611c43565b5b611d4e848285611d05565b509392505050565b600082601f830112611d6b57611d6a611c3e565b5b8135611d7b848260208601611d14565b91505092915050565b60058110611d9157600080fd5b50565b600081359050611da381611d84565b92915050565b600080600060608486031215611dc257611dc1611bd6565b5b6000611dd086828701611c29565b935050602084013567ffffffffffffffff811115611df157611df0611bdb565b5b611dfd86828701611d56565b9250506040611e0e86828701611d94565b9150509250925092565b600081519050919050565b600082825260208201905092915050565b6000819050602082019050919050565b611e4d81611c00565b82525050565b600081519050919050565b600082825260208201905092915050565b60005b83811015611e8d578082015181840152602081019050611e72565b83811115611e9c576000848401525b50505050565b6000611ead82611e53565b611eb78185611e5e565b9350611ec7818560208601611e6f565b611ed081611c48565b840191505092915050565b60008115159050919050565b611ef081611edb565b82525050565b600060e083016000830151611f0e6000860182611e44565b506020830151611f216020860182611e44565b5060408301518482036040860152611f398282611ea2565b91505060608301518482036060860152611f538282611ea2565b91505060808301518482036080860152611f6d8282611ea2565b91505060a083015184820360a0860152611f878282611ea2565b91505060c0830151611f9c60c0860182611ee7565b508091505092915050565b6000611fb38383611ef6565b905092915050565b6000602082019050919050565b6000611fd382611e18565b611fdd8185611e23565b935083602082028501611fef85611e34565b8060005b8581101561202b578484038952815161200c8582611fa7565b945061201783611fbb565b925060208a01995050600181019050611ff3565b50829750879550505050505092915050565b600060208201905081810360008301526120578184611fc8565b905092915050565b60006020828403121561207557612074611bd6565b5b600082013567ffffffffffffffff81111561209357612092611bdb565b5b61209f84828501611d56565b91505092915050565b6120b181611edb565b82525050565b60006020820190506120cc60008301846120a8565b92915050565b600060e0830160008301516120ea6000860182611e44565b5060208301516120fd6020860182611e44565b50604083015184820360408601526121158282611ea2565b9150506060830151848203606086015261212f8282611ea2565b915050608083015184820360808601526121498282611ea2565b91505060a083015184820360a08601526121638282611ea2565b91505060c083015161217860c0860182611ee7565b508091505092915050565b6000602082019050818103600083015261219d81846120d2565b905092915050565b600080604083850312156121bc576121bb611bd6565b5b60006121ca85828601611c29565b925050602083013567ffffffffffffffff8111156121eb576121ea611bdb565b5b6121f785828601611d56565b9150509250929050565b600080600080600060a0868803121561221d5761221c611bd6565b5b600061222b88828901611c29565b955050602086013567ffffffffffffffff81111561224c5761224b611bdb565b5b61225888828901611d56565b945050604086013567ffffffffffffffff81111561227957612278611bdb565b5b61228588828901611d56565b935050606086013567ffffffffffffffff8111156122a6576122a5611bdb565b5b6122b288828901611d56565b925050608086013567ffffffffffffffff8111156122d3576122d2611bdb565b5b6122df88828901611d56565b9150509295509295909350565b6122f581611c00565b82525050565b600060208201905061231060008301846122ec565b92915050565b60006020828403121561232c5761232b611bd6565b5b600061233a84828501611c29565b91505092915050565b7f4e487b7100000000000000000000000000000000000000000000000000000000600052602160045260246000fd5b6005811061238357612382612343565b5b50565b600081905061239482612372565b919050565b60006123a482612386565b9050919050565b6123b481612399565b82525050565b60006020820190506123cf60008301846123ab565b92915050565b600080604083850312156123ec576123eb611bd6565b5b60006123fa85828601611c29565b925050602061240b85828601611d94565b9150509250929050565b600082825260208201905092915050565b7f596f752061726520756e617574686f72697a6500000000000000000000000000600082015250565b600061245c601383612415565b915061246782612426565b602082019050919050565b6000602082019050818103600083015261248b8161244f565b9050919050565b7f556e617574686f72697a65206163636573730000000000000000000000000000600082015250565b60006124c8601283612415565b91506124d382612492565b602082019050919050565b600060208201905081810360008301526124f7816124bb565b9050919050565b7f4e487b7100000000000000000000000000000000000000000000000000000000600052602260045260246000fd5b6000600282049050600182168061254557607f821691505b60208210811415612559576125586124fe565b5b50919050565b600081905092915050565b600061257582611e53565b61257f818561255f565b935061258f818560208601611e6f565b80840191505092915050565b60006125a7828461256a565b915081905092915050565b60006125bd82611e53565b6125c78185612415565b93506125d7818560208601611e6f565b6125e081611c48565b840191505092915050565b6000604082019050818103600083015261260581856125b2565b9050818103602083015261261981846125b2565b90509392505050565b7f556e617574686f72697a6520746f206d616465206368616e6765730000000000600082015250565b6000612658601b83612415565b915061266382612622565b602082019050919050565b600060208201905081810360008301526126878161264b565b9050919050565b7f4e487b7100000000000000000000000000000000000000000000000000000000600052603260045260246000fd5b600081905092915050565b60008190508160005260206000209050919050565b600081546126ea8161252d565b6126f481866126bd565b9450600182166000811461270f576001811461272057612753565b60ff19831686528186019350612753565b612729856126c8565b60005b8381101561274b5781548189015260018201915060208101905061272c565b838801955050505b50505092915050565b600061276882846126dd565b915081905092915050565b7f4e487b7100000000000000000000000000000000000000000000000000000000600052601160045260246000fd5b6000819050919050565b60006127b7826127a2565b91507fffffffffffffffffffffffffffffffffffffffffffffffffffffffffffffffff8214156127ea576127e9612773565b5b60018201905091905056fea26469706673582212204ed7516a1df6cdb098b6fe7a03bed41040fc8123fd935c8e30e3c2d4ecffd77964736f6c63430008080033",
  "devdoc": {
    "kind": "dev",
    "methods": {},
    "version": 1
  },
  "userdoc": {
    "kind": "user",
    "methods": {},
    "version": 1
  },
  "storageLayout": {
    "storage": [
      {
        "astId": 3,
        "contract": "contracts/Certificate.sol:Certificate",
        "label": "owner",
        "offset": 0,
        "slot": "0",
        "type": "t_address"
      },
      {
        "astId": 72,
        "contract": "contracts/Certificate.sol:Certificate",
        "label": "userPermission",
        "offset": 0,
        "slot": "1",
        "type": "t_mapping(t_address,t_enum(Role_Access)9)"
      },
      {
        "astId": 77,
        "contract": "contracts/Certificate.sol:Certificate",
        "label": "userDetail",
        "offset": 0,
        "slot": "2",
        "type": "t_mapping(t_address,t_struct(User)52_storage)"
      },
      {
        "astId": 81,
        "contract": "contracts/Certificate.sol:Certificate",
        "label": "apiKeys",
        "offset": 0,
        "slot": "3",
        "type": "t_mapping(t_address,t_string_storage)"
      },
      {
        "astId": 87,
        "contract": "contracts/Certificate.sol:Certificate",
        "label": "userCertificates",
        "offset": 0,
        "slot": "4",
        "type": "t_mapping(t_address,t_array(t_struct(CertificateDetail)67_storage)dyn_storage)"
      },
      {
        "astId": 92,
        "contract": "contracts/Certificate.sol:Certificate",
        "label": "certificateDetails",
        "offset": 0,
        "slot": "5",
        "type": "t_mapping(t_string_memory_ptr,t_struct(CertificateDetail)67_storage)"
      },
      {
        "astId": 96,
        "contract": "contracts/Certificate.sol:Certificate",
        "label": "certificateIssuer",
        "offset": 0,
        "slot": "6",
        "type": "t_mapping(t_string_memory_ptr,t_address)"
      }
    ],
    "types": {
      "t_address": {
        "encoding": "inplace",
        "label": "address",
        "numberOfBytes": "20"
      },
      "t_array(t_struct(CertificateDetail)67_storage)dyn_storage": {
        "base": "t_struct(CertificateDetail)67_storage",
        "encoding": "dynamic_array",
        "label": "struct Certificate.CertificateDetail[]",
        "numberOfBytes": "32"
      },
      "t_bool": {
        "encoding": "inplace",
        "label": "bool",
        "numberOfBytes": "1"
      },
      "t_enum(Role_Access)9": {
        "encoding": "inplace",
        "label": "enum Certificate.Role_Access",
        "numberOfBytes": "1"
      },
      "t_mapping(t_address,t_array(t_struct(CertificateDetail)67_storage)dyn_storage)": {
        "encoding": "mapping",
        "key": "t_address",
        "label": "mapping(address => struct Certificate.CertificateDetail[])",
        "numberOfBytes": "32",
        "value": "t_array(t_struct(CertificateDetail)67_storage)dyn_storage"
      },
      "t_mapping(t_address,t_enum(Role_Access)9)": {
        "encoding": "mapping",
        "key": "t_address",
        "label": "mapping(address => enum Certificate.Role_Access)",
        "numberOfBytes": "32",
        "value": "t_enum(Role_Access)9"
      },
      "t_mapping(t_address,t_string_storage)": {
        "encoding": "mapping",
        "key": "t_address",
        "label": "mapping(address => string)",
        "numberOfBytes": "32",
        "value": "t_string_storage"
      },
      "t_mapping(t_address,t_struct(User)52_storage)": {
        "encoding": "mapping",
        "key": "t_address",
        "label": "mapping(address => struct Certificate.User)",
        "numberOfBytes": "32",
        "value": "t_struct(User)52_storage"
      },
      "t_mapping(t_string_memory_ptr,t_address)": {
        "encoding": "mapping",
        "key": "t_string_memory_ptr",
        "label": "mapping(string => address)",
        "numberOfBytes": "32",
        "value": "t_address"
      },
      "t_mapping(t_string_memory_ptr,t_struct(CertificateDetail)67_storage)": {
        "encoding": "mapping",
        "key": "t_string_memory_ptr",
        "label": "mapping(string => struct Certificate.CertificateDetail)",
        "numberOfBytes": "32",
        "value": "t_struct(CertificateDetail)67_storage"
      },
      "t_string_memory_ptr": {
        "encoding": "bytes",
        "label": "string",
        "numberOfBytes": "32"
      },
      "t_string_storage": {
        "encoding": "bytes",
        "label": "string",
        "numberOfBytes": "32"
      },
      "t_struct(CertificateDetail)67_storage": {
        "encoding": "inplace",
        "label": "struct Certificate.CertificateDetail",
        "members": [
          {
            "astId": 54,
            "contract": "contracts/Certificate.sol:Certificate",
            "label": "owner",
            "offset": 0,
            "slot": "0",
            "type": "t_address"
          },
          {
            "astId": 56,
            "contract": "contracts/Certificate.sol:Certificate",
            "label": "issuer",
            "offset": 0,
            "slot": "1",
            "type": "t_address"
          },
          {
            "astId": 58,
            "contract": "contracts/Certificate.sol:Certificate",
            "label": "documentUrl",
            "offset": 0,
            "slot": "2",
            "type": "t_string_storage"
          },
          {
            "astId": 60,
            "contract": "contracts/Certificate.sol:Certificate",
            "label": "uniqueId",
            "offset": 0,
            "slot": "3",
            "type": "t_string_storage"
          },
          {
            "astId": 62,
            "contract": "contracts/Certificate.sol:Certificate",
            "label": "courseId",
            "offset": 0,
            "slot": "4",
            "type": "t_string_storage"
          },
          {
            "astId": 64,
            "contract": "contracts/Certificate.sol:Certificate",
            "label": "remarks",
            "offset": 0,
            "slot": "5",
            "type": "t_string_storage"
          },
          {
            "astId": 66,
            "contract": "contracts/Certificate.sol:Certificate",
            "label": "isValid",
            "offset": 0,
            "slot": "6",
            "type": "t_bool"
          }
        ],
        "numberOfBytes": "224"
      },
      "t_struct(User)52_storage": {
        "encoding": "inplace",
        "label": "struct Certificate.User",
        "members": [
          {
            "astId": 44,
            "contract": "contracts/Certificate.sol:Certificate",
            "label": "userId",
            "offset": 0,
            "slot": "0",
            "type": "t_address"
          },
          {
            "astId": 47,
            "contract": "contracts/Certificate.sol:Certificate",
            "label": "role_assigned",
            "offset": 20,
            "slot": "0",
            "type": "t_enum(Role_Access)9"
          },
          {
            "astId": 49,
            "contract": "contracts/Certificate.sol:Certificate",
            "label": "universityName",
            "offset": 0,
            "slot": "1",
            "type": "t_string_storage"
          },
          {
            "astId": 51,
            "contract": "contracts/Certificate.sol:Certificate",
            "label": "isValid",
            "offset": 0,
            "slot": "2",
            "type": "t_bool"
          }
        ],
        "numberOfBytes": "96"
      }
    }
  }
}