{
  "address": "0x5FbDB2315678afecb367f032d93F642f64180aa3",
  "abi": [
    {
      "inputs": [],
      "stateMutability": "nonpayable",
      "type": "constructor"
    },
    {
      "anonymous": false,
      "inputs": [
        {
          "indexed": true,
          "internalType": "address",
          "name": "user",
          "type": "address"
        },
        {
          "indexed": false,
          "internalType": "string",
          "name": "apiKey",
          "type": "string"
        }
      ],
      "name": "ApiGenerates",
      "type": "event"
    },
    {
      "anonymous": false,
      "inputs": [
        {
          "indexed": true,
          "internalType": "address",
          "name": "_owner",
          "type": "address"
        },
        {
          "indexed": false,
          "internalType": "string",
          "name": "documentUrl",
          "type": "string"
        },
        {
          "indexed": false,
          "internalType": "string",
          "name": "uniqueId",
          "type": "string"
        }
      ],
      "name": "CertificateIssued",
      "type": "event"
    },
    {
      "anonymous": false,
      "inputs": [
        {
          "indexed": true,
          "internalType": "address",
          "name": "_issuer",
          "type": "address"
        },
        {
          "indexed": true,
          "internalType": "address",
          "name": "_owner",
          "type": "address"
        },
        {
          "indexed": false,
          "internalType": "string",
          "name": "documentUrl",
          "type": "string"
        },
        {
          "indexed": true,
          "internalType": "string",
          "name": "uniqueId",
          "type": "string"
        },
        {
          "indexed": false,
          "internalType": "string",
          "name": "remarks",
          "type": "string"
        }
      ],
      "name": "CertificateValidate",
      "type": "event"
    },
    {
      "anonymous": false,
      "inputs": [
        {
          "indexed": true,
          "internalType": "address",
          "name": "user",
          "type": "address"
        },
        {
          "indexed": false,
          "internalType": "enum Certificate.Role_Access",
          "name": "role_assigned",
          "type": "uint8"
        }
      ],
      "name": "RoleAssigned",
      "type": "event"
    },
    {
      "inputs": [
        {
          "internalType": "address",
          "name": "_student",
          "type": "address"
        },
        {
          "internalType": "string",
          "name": "_certId",
          "type": "string"
        }
      ],
      "name": "discardCertficate",
      "outputs": [],
      "stateMutability": "nonpayable",
      "type": "function"
    },
    {
      "inputs": [
        {
          "internalType": "address",
          "name": "_user",
          "type": "address"
        },
        {
          "internalType": "string",
          "name": "_universityName",
          "type": "string"
        },
        {
          "internalType": "enum Certificate.Role_Access",
          "name": "_role",
          "type": "uint8"
        }
      ],
      "name": "generateApiKey",
      "outputs": [],
      "stateMutability": "nonpayable",
      "type": "function"
    },
    {
      "inputs": [
        {
          "internalType": "address",
          "name": "_owner",
          "type": "address"
        },
        {
          "internalType": "string",
          "name": "_documentUrl",
          "type": "string"
        },
        {
          "internalType": "string",
          "name": "_uniqueId",
          "type": "string"
        },
        {
          "internalType": "string",
          "name": "_courseId",
          "type": "string"
        },
        {
          "internalType": "string",
          "name": "_remark",
          "type": "string"
        }
      ],
      "name": "generateCertificate",
      "outputs": [],
      "stateMutability": "nonpayable",
      "type": "function"
    },
    {
      "inputs": [
        {
          "internalType": "string",
          "name": "_certId",
          "type": "string"
        }
      ],
      "name": "getCertificateDetail",
      "outputs": [
        {
          "components": [
            {
              "internalType": "address",
              "name": "owner",
              "type": "address"
            },
            {
              "internalType": "address",
              "name": "issuer",
              "type": "address"
            },
            {
              "internalType": "string",
              "name": "documentUrl",
              "type": "string"
            },
            {
              "internalType": "string",
              "name": "uniqueId",
              "type": "string"
            },
            {
              "internalType": "string",
              "name": "courseId",
              "type": "string"
            },
            {
              "internalType": "string",
              "name": "remarks",
              "type": "string"
            },
            {
              "internalType": "bool",
              "name": "isValid",
              "type": "bool"
            }
          ],
          "internalType": "struct Certificate.CertificateDetail",
          "name": "",
          "type": "tuple"
        }
      ],
      "stateMutability": "view",
      "type": "function"
    },
    {
      "inputs": [],
      "name": "getMyAllCertificates",
      "outputs": [
        {
          "components": [
            {
              "internalType": "address",
              "name": "owner",
              "type": "address"
            },
            {
              "internalType": "address",
              "name": "issuer",
              "type": "address"
            },
            {
              "internalType": "string",
              "name": "documentUrl",
              "type": "string"
            },
            {
              "internalType": "string",
              "name": "uniqueId",
              "type": "string"
            },
            {
              "internalType": "string",
              "name": "courseId",
              "type": "string"
            },
            {
              "internalType": "string",
              "name": "remarks",
              "type": "string"
            },
            {
              "internalType": "bool",
              "name": "isValid",
              "type": "bool"
            }
          ],
          "internalType": "struct Certificate.CertificateDetail[]",
          "name": "",
          "type": "tuple[]"
        }
      ],
      "stateMutability": "view",
      "type": "function"
    },
    {
      "inputs": [
        {
          "internalType": "address",
          "name": "_user",
          "type": "address"
        },
        {
          "internalType": "enum Certificate.Role_Access",
          "name": "_newRole",
          "type": "uint8"
        }
      ],
      "name": "modifyRole",
      "outputs": [],
      "stateMutability": "nonpayable",
      "type": "function"
    },
    {
      "inputs": [],
      "name": "owner",
      "outputs": [
        {
          "internalType": "address",
          "name": "",
          "type": "address"
        }
      ],
      "stateMutability": "view",
      "type": "function"
    },
    {
      "inputs": [
        {
          "internalType": "string",
          "name": "_certId",
          "type": "string"
        }
      ],
      "name": "validateCertificate",
      "outputs": [
        {
          "internalType": "bool",
          "name": "",
          "type": "bool"
        }
      ],
      "stateMutability": "nonpayable",
      "type": "function"
    }
  ],
  "transactionHash": "0x05ac1fc9d586f5d9fcc2e7b556b2f879e7943ac38bf618c5e8a7620100c52d06",
  "args": [],
  "numDeployments": 1,
  "solcInputHash": "b07886425b783d9b1a49c780661195e2",
  "bytecode": "0x60806040523480156200001157600080fd5b50336000806101000a81548173ffffffffffffffffffffffffffffffffffffffff021916908373ffffffffffffffffffffffffffffffffffffffff1602179055506004600160003373ffffffffffffffffffffffffffffffffffffffff1673ffffffffffffffffffffffffffffffffffffffff16815260200190815260200160002060006101000a81548160ff02191690836004811115620000b857620000b762000114565b5b02179055503373ffffffffffffffffffffffffffffffffffffffff167f4ac36fa53f167ceb85964be512e01de2a3b8bdb9862f917da079deeeff689b38600460405162000106919062000194565b60405180910390a2620001b1565b7f4e487b7100000000000000000000000000000000000000000000000000000000600052602160045260246000fd5b6005811062000157576200015662000114565b5b50565b60008190506200016a8262000143565b919050565b60006200017c826200015a565b9050919050565b6200018e816200016f565b82525050565b6000602082019050620001ab600083018462000183565b92915050565b6127a380620001c16000396000f3fe608060405234801561001057600080fd5b50600436106100885760003560e01c80636f7cf0281161005b5780636f7cf0281461012757806386655139146101435780638da5cb5b1461015f578063e9c1847e1461017d57610088565b8063035127961461008d5780630762bb68146100a95780632df68d72146100c75780634b2a7993146100f7575b600080fd5b6100a760048036038101906100a29190611d4e565b610199565b005b6100b161048c565b6040516100be9190611fe2565b60405180910390f35b6100e160048036038101906100dc9190612004565b6108bc565b6040516100ee919061205c565b60405180910390f35b610111600480360381019061010c9190612004565b610d60565b60405161011e9190612128565b60405180910390f35b610141600480360381019061013c919061214a565b61112c565b005b61015d600480360381019061015891906121a6565b61142e565b005b6101676118d0565b60405161017491906122a0565b60405180910390f35b610197600480360381019061019291906122bb565b6118f4565b005b60048060048111156101ae576101ad6122fb565b5b600160003373ffffffffffffffffffffffffffffffffffffffff1673ffffffffffffffffffffffffffffffffffffffff16815260200190815260200160002060009054906101000a900460ff16600481111561020d5761020c6122fb565b5b101561024e576040517f08c379a000000000000000000000000000000000000000000000000000000000815260040161024590612387565b60405180910390fd5b600060405180608001604052808673ffffffffffffffffffffffffffffffffffffffff16815260200184600481111561028a576102896122fb565b5b815260200185815260200160011515815250905080600260008773ffffffffffffffffffffffffffffffffffffffff1673ffffffffffffffffffffffffffffffffffffffff16815260200190815260200160002060008201518160000160006101000a81548173ffffffffffffffffffffffffffffffffffffffff021916908373ffffffffffffffffffffffffffffffffffffffff16021790555060208201518160000160146101000a81548160ff021916908360048111156103505761034f6122fb565b5b02179055506040820151816001019080519060200190610371929190611a63565b5060608201518160020160006101000a81548160ff02191690831515021790555090505082600160008773ffffffffffffffffffffffffffffffffffffffff1673ffffffffffffffffffffffffffffffffffffffff16815260200190815260200160002060006101000a81548160ff021916908360048111156103f7576103f66122fb565b5b02179055506040518060400160405280600b81526020017f6170695f6b65795f677475000000000000000000000000000000000000000000815250600360008773ffffffffffffffffffffffffffffffffffffffff1673ffffffffffffffffffffffffffffffffffffffff1681526020019081526020016000209080519060200190610484929190611a63565b505050505050565b60606000600460003373ffffffffffffffffffffffffffffffffffffffff1673ffffffffffffffffffffffffffffffffffffffff1681526020019081526020016000208054905011610513576040517f08c379a000000000000000000000000000000000000000000000000000000000815260040161050a906123f3565b60405180910390fd5b600460003373ffffffffffffffffffffffffffffffffffffffff1673ffffffffffffffffffffffffffffffffffffffff168152602001908152602001600020805480602002602001604051908101604052809291908181526020016000905b828210156108b357838290600052602060002090600702016040518060e00160405290816000820160009054906101000a900473ffffffffffffffffffffffffffffffffffffffff1673ffffffffffffffffffffffffffffffffffffffff1673ffffffffffffffffffffffffffffffffffffffff1681526020016001820160009054906101000a900473ffffffffffffffffffffffffffffffffffffffff1673ffffffffffffffffffffffffffffffffffffffff1673ffffffffffffffffffffffffffffffffffffffff16815260200160028201805461065190612442565b80601f016020809104026020016040519081016040528092919081815260200182805461067d90612442565b80156106ca5780601f1061069f576101008083540402835291602001916106ca565b820191906000526020600020905b8154815290600101906020018083116106ad57829003601f168201915b505050505081526020016003820180546106e390612442565b80601f016020809104026020016040519081016040528092919081815260200182805461070f90612442565b801561075c5780601f106107315761010080835404028352916020019161075c565b820191906000526020600020905b81548152906001019060200180831161073f57829003601f168201915b5050505050815260200160048201805461077590612442565b80601f01602080910402602001604051908101604052809291908181526020018280546107a190612442565b80156107ee5780601f106107c3576101008083540402835291602001916107ee565b820191906000526020600020905b8154815290600101906020018083116107d157829003601f168201915b5050505050815260200160058201805461080790612442565b80601f016020809104026020016040519081016040528092919081815260200182805461083390612442565b80156108805780601f1061085557610100808354040283529160200191610880565b820191906000526020600020905b81548152906001019060200180831161086357829003601f168201915b505050505081526020016006820160009054906101000a900460ff16151515158152505081526020019060010190610572565b50505050905090565b600060028060048111156108d3576108d26122fb565b5b600160003373ffffffffffffffffffffffffffffffffffffffff1673ffffffffffffffffffffffffffffffffffffffff16815260200190815260200160002060009054906101000a900460ff166004811115610932576109316122fb565b5b1015610973576040517f08c379a000000000000000000000000000000000000000000000000000000000815260040161096a90612387565b60405180910390fd5b600060058460405161098591906124b0565b90815260200160405180910390206040518060e00160405290816000820160009054906101000a900473ffffffffffffffffffffffffffffffffffffffff1673ffffffffffffffffffffffffffffffffffffffff1673ffffffffffffffffffffffffffffffffffffffff1681526020016001820160009054906101000a900473ffffffffffffffffffffffffffffffffffffffff1673ffffffffffffffffffffffffffffffffffffffff1673ffffffffffffffffffffffffffffffffffffffff168152602001600282018054610a5a90612442565b80601f0160208091040260200160405190810160405280929190818152602001828054610a8690612442565b8015610ad35780601f10610aa857610100808354040283529160200191610ad3565b820191906000526020600020905b815481529060010190602001808311610ab657829003601f168201915b50505050508152602001600382018054610aec90612442565b80601f0160208091040260200160405190810160405280929190818152602001828054610b1890612442565b8015610b655780601f10610b3a57610100808354040283529160200191610b65565b820191906000526020600020905b815481529060010190602001808311610b4857829003601f168201915b50505050508152602001600482018054610b7e90612442565b80601f0160208091040260200160405190810160405280929190818152602001828054610baa90612442565b8015610bf75780601f10610bcc57610100808354040283529160200191610bf7565b820191906000526020600020905b815481529060010190602001808311610bda57829003601f168201915b50505050508152602001600582018054610c1090612442565b80601f0160208091040260200160405190810160405280929190818152602001828054610c3c90612442565b8015610c895780601f10610c5e57610100808354040283529160200191610c89565b820191906000526020600020905b815481529060010190602001808311610c6c57829003601f168201915b505050505081526020016006820160009054906101000a900460ff16151515158152505090508060c0015115610d54578060600151604051610ccb91906124b0565b6040518091039020816000015173ffffffffffffffffffffffffffffffffffffffff16826020015173ffffffffffffffffffffffffffffffffffffffff167f6f66afddd9ad75f62b2a2bd499c98ba95cca5d062e8c58634459692fcc76ae0384604001518560a00151604051610d42929190612500565b60405180910390a46001925050610d5a565b60009250505b50919050565b610d68611ae9565b6000600460003373ffffffffffffffffffffffffffffffffffffffff1673ffffffffffffffffffffffffffffffffffffffff1681526020019081526020016000208054905011610ded576040517f08c379a0000000000000000000000000000000000000000000000000000000008152600401610de4906123f3565b60405180910390fd5b600582604051610dfd91906124b0565b90815260200160405180910390206040518060e00160405290816000820160009054906101000a900473ffffffffffffffffffffffffffffffffffffffff1673ffffffffffffffffffffffffffffffffffffffff1673ffffffffffffffffffffffffffffffffffffffff1681526020016001820160009054906101000a900473ffffffffffffffffffffffffffffffffffffffff1673ffffffffffffffffffffffffffffffffffffffff1673ffffffffffffffffffffffffffffffffffffffff168152602001600282018054610ed290612442565b80601f0160208091040260200160405190810160405280929190818152602001828054610efe90612442565b8015610f4b5780601f10610f2057610100808354040283529160200191610f4b565b820191906000526020600020905b815481529060010190602001808311610f2e57829003601f168201915b50505050508152602001600382018054610f6490612442565b80601f0160208091040260200160405190810160405280929190818152602001828054610f9090612442565b8015610fdd5780601f10610fb257610100808354040283529160200191610fdd565b820191906000526020600020905b815481529060010190602001808311610fc057829003601f168201915b50505050508152602001600482018054610ff690612442565b80601f016020809104026020016040519081016040528092919081815260200182805461102290612442565b801561106f5780601f106110445761010080835404028352916020019161106f565b820191906000526020600020905b81548152906001019060200180831161105257829003601f168201915b5050505050815260200160058201805461108890612442565b80601f01602080910402602001604051908101604052809291908181526020018280546110b490612442565b80156111015780601f106110d657610100808354040283529160200191611101565b820191906000526020600020905b8154815290600101906020018083116110e457829003601f168201915b505050505081526020016006820160009054906101000a900460ff1615151515815250509050919050565b6003806004811115611141576111406122fb565b5b600160003373ffffffffffffffffffffffffffffffffffffffff1673ffffffffffffffffffffffffffffffffffffffff16815260200190815260200160002060009054906101000a900460ff1660048111156111a05761119f6122fb565b5b10156111e1576040517f08c379a00000000000000000000000000000000000000000000000000000000081526004016111d890612387565b60405180910390fd5b3373ffffffffffffffffffffffffffffffffffffffff1660068360405161120891906124b0565b908152602001604051809103902060009054906101000a900473ffffffffffffffffffffffffffffffffffffffff1673ffffffffffffffffffffffffffffffffffffffff161461128d576040517f08c379a000000000000000000000000000000000000000000000000000000000815260040161128490612583565b60405180910390fd5b60005b600460008573ffffffffffffffffffffffffffffffffffffffff1673ffffffffffffffffffffffffffffffffffffffff16815260200190815260200160002080549050811015611428578280519060200120600460008673ffffffffffffffffffffffffffffffffffffffff1673ffffffffffffffffffffffffffffffffffffffff1681526020019081526020016000208281548110611333576113326125a3565b5b90600052602060002090600702016003016040516113519190612671565b60405180910390201415611415576000600460008673ffffffffffffffffffffffffffffffffffffffff1673ffffffffffffffffffffffffffffffffffffffff16815260200190815260200160002082815481106113b2576113b16125a3565b5b906000526020600020906007020160060160006101000a81548160ff02191690831515021790555060006005846040516113ec91906124b0565b908152602001604051809103902060060160006101000a81548160ff0219169083151502179055505b8080611420906126c1565b915050611290565b50505050565b6003806004811115611443576114426122fb565b5b600160003373ffffffffffffffffffffffffffffffffffffffff1673ffffffffffffffffffffffffffffffffffffffff16815260200190815260200160002060009054906101000a900460ff1660048111156114a2576114a16122fb565b5b10156114e3576040517f08c379a00000000000000000000000000000000000000000000000000000000081526004016114da90612387565b60405180910390fd5b60006040518060e001604052808873ffffffffffffffffffffffffffffffffffffffff1681526020013373ffffffffffffffffffffffffffffffffffffffff168152602001878152602001868152602001858152602001848152602001600115158152509050600460008873ffffffffffffffffffffffffffffffffffffffff1673ffffffffffffffffffffffffffffffffffffffff16815260200190815260200160002081908060018154018082558091505060019003906000526020600020906007020160009091909190915060008201518160000160006101000a81548173ffffffffffffffffffffffffffffffffffffffff021916908373ffffffffffffffffffffffffffffffffffffffff16021790555060208201518160010160006101000a81548173ffffffffffffffffffffffffffffffffffffffff021916908373ffffffffffffffffffffffffffffffffffffffff160217905550604082015181600201908051906020019061165c929190611a63565b506060820151816003019080519060200190611679929190611a63565b506080820151816004019080519060200190611696929190611a63565b5060a08201518160050190805190602001906116b3929190611a63565b5060c08201518160060160006101000a81548160ff0219169083151502179055505050806005866040516116e791906124b0565b908152602001604051809103902060008201518160000160006101000a81548173ffffffffffffffffffffffffffffffffffffffff021916908373ffffffffffffffffffffffffffffffffffffffff16021790555060208201518160010160006101000a81548173ffffffffffffffffffffffffffffffffffffffff021916908373ffffffffffffffffffffffffffffffffffffffff160217905550604082015181600201908051906020019061179f929190611a63565b5060608201518160030190805190602001906117bc929190611a63565b5060808201518160040190805190602001906117d9929190611a63565b5060a08201518160050190805190602001906117f6929190611a63565b5060c08201518160060160006101000a81548160ff0219169083151502179055509050503360068660405161182b91906124b0565b908152602001604051809103902060006101000a81548173ffffffffffffffffffffffffffffffffffffffff021916908373ffffffffffffffffffffffffffffffffffffffff1602179055508673ffffffffffffffffffffffffffffffffffffffff167f47cc4ced4606cf64a6565f021a305c4cb93bfd53abc74f8321ff3552f6ab754a87876040516118bf929190612500565b60405180910390a250505050505050565b60008054906101000a900473ffffffffffffffffffffffffffffffffffffffff1681565b6004806004811115611909576119086122fb565b5b600160003373ffffffffffffffffffffffffffffffffffffffff1673ffffffffffffffffffffffffffffffffffffffff16815260200190815260200160002060009054906101000a900460ff166004811115611968576119676122fb565b5b10156119a9576040517f08c379a00000000000000000000000000000000000000000000000000000000081526004016119a090612387565b60405180910390fd5b81600160008573ffffffffffffffffffffffffffffffffffffffff1673ffffffffffffffffffffffffffffffffffffffff16815260200190815260200160002060006101000a81548160ff02191690836004811115611a0b57611a0a6122fb565b5b02179055508273ffffffffffffffffffffffffffffffffffffffff167f4ac36fa53f167ceb85964be512e01de2a3b8bdb9862f917da079deeeff689b3883604051611a569190612752565b60405180910390a2505050565b828054611a6f90612442565b90600052602060002090601f016020900481019282611a915760008555611ad8565b82601f10611aaa57805160ff1916838001178555611ad8565b82800160010185558215611ad8579182015b82811115611ad7578251825591602001919060010190611abc565b5b509050611ae59190611b54565b5090565b6040518060e00160405280600073ffffffffffffffffffffffffffffffffffffffff168152602001600073ffffffffffffffffffffffffffffffffffffffff168152602001606081526020016060815260200160608152602001606081526020016000151581525090565b5b80821115611b6d576000816000905550600101611b55565b5090565b6000604051905090565b600080fd5b600080fd5b600073ffffffffffffffffffffffffffffffffffffffff82169050919050565b6000611bb082611b85565b9050919050565b611bc081611ba5565b8114611bcb57600080fd5b50565b600081359050611bdd81611bb7565b92915050565b600080fd5b600080fd5b6000601f19601f8301169050919050565b7f4e487b7100000000000000000000000000000000000000000000000000000000600052604160045260246000fd5b611c3682611bed565b810181811067ffffffffffffffff82111715611c5557611c54611bfe565b5b80604052505050565b6000611c68611b71565b9050611c748282611c2d565b919050565b600067ffffffffffffffff821115611c9457611c93611bfe565b5b611c9d82611bed565b9050602081019050919050565b82818337600083830152505050565b6000611ccc611cc784611c79565b611c5e565b905082815260208101848484011115611ce857611ce7611be8565b5b611cf3848285611caa565b509392505050565b600082601f830112611d1057611d0f611be3565b5b8135611d20848260208601611cb9565b91505092915050565b60058110611d3657600080fd5b50565b600081359050611d4881611d29565b92915050565b600080600060608486031215611d6757611d66611b7b565b5b6000611d7586828701611bce565b935050602084013567ffffffffffffffff811115611d9657611d95611b80565b5b611da286828701611cfb565b9250506040611db386828701611d39565b9150509250925092565b600081519050919050565b600082825260208201905092915050565b6000819050602082019050919050565b611df281611ba5565b82525050565b600081519050919050565b600082825260208201905092915050565b60005b83811015611e32578082015181840152602081019050611e17565b83811115611e41576000848401525b50505050565b6000611e5282611df8565b611e5c8185611e03565b9350611e6c818560208601611e14565b611e7581611bed565b840191505092915050565b60008115159050919050565b611e9581611e80565b82525050565b600060e083016000830151611eb36000860182611de9565b506020830151611ec66020860182611de9565b5060408301518482036040860152611ede8282611e47565b91505060608301518482036060860152611ef88282611e47565b91505060808301518482036080860152611f128282611e47565b91505060a083015184820360a0860152611f2c8282611e47565b91505060c0830151611f4160c0860182611e8c565b508091505092915050565b6000611f588383611e9b565b905092915050565b6000602082019050919050565b6000611f7882611dbd565b611f828185611dc8565b935083602082028501611f9485611dd9565b8060005b85811015611fd05784840389528151611fb18582611f4c565b9450611fbc83611f60565b925060208a01995050600181019050611f98565b50829750879550505050505092915050565b60006020820190508181036000830152611ffc8184611f6d565b905092915050565b60006020828403121561201a57612019611b7b565b5b600082013567ffffffffffffffff81111561203857612037611b80565b5b61204484828501611cfb565b91505092915050565b61205681611e80565b82525050565b6000602082019050612071600083018461204d565b92915050565b600060e08301600083015161208f6000860182611de9565b5060208301516120a26020860182611de9565b50604083015184820360408601526120ba8282611e47565b915050606083015184820360608601526120d48282611e47565b915050608083015184820360808601526120ee8282611e47565b91505060a083015184820360a08601526121088282611e47565b91505060c083015161211d60c0860182611e8c565b508091505092915050565b600060208201905081810360008301526121428184612077565b905092915050565b6000806040838503121561216157612160611b7b565b5b600061216f85828601611bce565b925050602083013567ffffffffffffffff8111156121905761218f611b80565b5b61219c85828601611cfb565b9150509250929050565b600080600080600060a086880312156121c2576121c1611b7b565b5b60006121d088828901611bce565b955050602086013567ffffffffffffffff8111156121f1576121f0611b80565b5b6121fd88828901611cfb565b945050604086013567ffffffffffffffff81111561221e5761221d611b80565b5b61222a88828901611cfb565b935050606086013567ffffffffffffffff81111561224b5761224a611b80565b5b61225788828901611cfb565b925050608086013567ffffffffffffffff81111561227857612277611b80565b5b61228488828901611cfb565b9150509295509295909350565b61229a81611ba5565b82525050565b60006020820190506122b56000830184612291565b92915050565b600080604083850312156122d2576122d1611b7b565b5b60006122e085828601611bce565b92505060206122f185828601611d39565b9150509250929050565b7f4e487b7100000000000000000000000000000000000000000000000000000000600052602160045260246000fd5b600082825260208201905092915050565b7f596f752061726520756e617574686f72697a6500000000000000000000000000600082015250565b600061237160138361232a565b915061237c8261233b565b602082019050919050565b600060208201905081810360008301526123a081612364565b9050919050565b7f556e617574686f72697a65206163636573730000000000000000000000000000600082015250565b60006123dd60128361232a565b91506123e8826123a7565b602082019050919050565b6000602082019050818103600083015261240c816123d0565b9050919050565b7f4e487b7100000000000000000000000000000000000000000000000000000000600052602260045260246000fd5b6000600282049050600182168061245a57607f821691505b6020821081141561246e5761246d612413565b5b50919050565b600081905092915050565b600061248a82611df8565b6124948185612474565b93506124a4818560208601611e14565b80840191505092915050565b60006124bc828461247f565b915081905092915050565b60006124d282611df8565b6124dc818561232a565b93506124ec818560208601611e14565b6124f581611bed565b840191505092915050565b6000604082019050818103600083015261251a81856124c7565b9050818103602083015261252e81846124c7565b90509392505050565b7f556e617574686f72697a6520746f206d616465206368616e6765730000000000600082015250565b600061256d601b8361232a565b915061257882612537565b602082019050919050565b6000602082019050818103600083015261259c81612560565b9050919050565b7f4e487b7100000000000000000000000000000000000000000000000000000000600052603260045260246000fd5b600081905092915050565b60008190508160005260206000209050919050565b600081546125ff81612442565b61260981866125d2565b94506001821660008114612624576001811461263557612668565b60ff19831686528186019350612668565b61263e856125dd565b60005b8381101561266057815481890152600182019150602081019050612641565b838801955050505b50505092915050565b600061267d82846125f2565b915081905092915050565b7f4e487b7100000000000000000000000000000000000000000000000000000000600052601160045260246000fd5b6000819050919050565b60006126cc826126b7565b91507fffffffffffffffffffffffffffffffffffffffffffffffffffffffffffffffff8214156126ff576126fe612688565b5b600182019050919050565b6005811061271b5761271a6122fb565b5b50565b600081905061272c8261270a565b919050565b600061273c8261271e565b9050919050565b61274c81612731565b82525050565b60006020820190506127676000830184612743565b9291505056fea264697066735822122065e8ffb0b46e74bd750474e49aff297562151aa41193b139f07495fe688e703b64736f6c63430008080033",
  "devdoc": {
    "kind": "dev",
    "methods": {},
    "version": 1
  },
  "userdoc": {
    "kind": "user",
    "methods": {},
    "version": 1
  },
  "storageLayout": {
    "storage": [
      {
        "astId": 3,
        "contract": "contracts/Certificate.sol:Certificate",
        "label": "owner",
        "offset": 0,
        "slot": "0",
        "type": "t_address"
      },
      {
        "astId": 72,
        "contract": "contracts/Certificate.sol:Certificate",
        "label": "userPermission",
        "offset": 0,
        "slot": "1",
        "type": "t_mapping(t_address,t_enum(Role_Access)9)"
      },
      {
        "astId": 77,
        "contract": "contracts/Certificate.sol:Certificate",
        "label": "userDetail",
        "offset": 0,
        "slot": "2",
        "type": "t_mapping(t_address,t_struct(User)52_storage)"
      },
      {
        "astId": 81,
        "contract": "contracts/Certificate.sol:Certificate",
        "label": "apiKeys",
        "offset": 0,
        "slot": "3",
        "type": "t_mapping(t_address,t_string_storage)"
      },
      {
        "astId": 87,
        "contract": "contracts/Certificate.sol:Certificate",
        "label": "userCertificates",
        "offset": 0,
        "slot": "4",
        "type": "t_mapping(t_address,t_array(t_struct(CertificateDetail)67_storage)dyn_storage)"
      },
      {
        "astId": 92,
        "contract": "contracts/Certificate.sol:Certificate",
        "label": "certificateDetails",
        "offset": 0,
        "slot": "5",
        "type": "t_mapping(t_string_memory_ptr,t_struct(CertificateDetail)67_storage)"
      },
      {
        "astId": 96,
        "contract": "contracts/Certificate.sol:Certificate",
        "label": "certificateIssuer",
        "offset": 0,
        "slot": "6",
        "type": "t_mapping(t_string_memory_ptr,t_address)"
      }
    ],
    "types": {
      "t_address": {
        "encoding": "inplace",
        "label": "address",
        "numberOfBytes": "20"
      },
      "t_array(t_struct(CertificateDetail)67_storage)dyn_storage": {
        "base": "t_struct(CertificateDetail)67_storage",
        "encoding": "dynamic_array",
        "label": "struct Certificate.CertificateDetail[]",
        "numberOfBytes": "32"
      },
      "t_bool": {
        "encoding": "inplace",
        "label": "bool",
        "numberOfBytes": "1"
      },
      "t_enum(Role_Access)9": {
        "encoding": "inplace",
        "label": "enum Certificate.Role_Access",
        "numberOfBytes": "1"
      },
      "t_mapping(t_address,t_array(t_struct(CertificateDetail)67_storage)dyn_storage)": {
        "encoding": "mapping",
        "key": "t_address",
        "label": "mapping(address => struct Certificate.CertificateDetail[])",
        "numberOfBytes": "32",
        "value": "t_array(t_struct(CertificateDetail)67_storage)dyn_storage"
      },
      "t_mapping(t_address,t_enum(Role_Access)9)": {
        "encoding": "mapping",
        "key": "t_address",
        "label": "mapping(address => enum Certificate.Role_Access)",
        "numberOfBytes": "32",
        "value": "t_enum(Role_Access)9"
      },
      "t_mapping(t_address,t_string_storage)": {
        "encoding": "mapping",
        "key": "t_address",
        "label": "mapping(address => string)",
        "numberOfBytes": "32",
        "value": "t_string_storage"
      },
      "t_mapping(t_address,t_struct(User)52_storage)": {
        "encoding": "mapping",
        "key": "t_address",
        "label": "mapping(address => struct Certificate.User)",
        "numberOfBytes": "32",
        "value": "t_struct(User)52_storage"
      },
      "t_mapping(t_string_memory_ptr,t_address)": {
        "encoding": "mapping",
        "key": "t_string_memory_ptr",
        "label": "mapping(string => address)",
        "numberOfBytes": "32",
        "value": "t_address"
      },
      "t_mapping(t_string_memory_ptr,t_struct(CertificateDetail)67_storage)": {
        "encoding": "mapping",
        "key": "t_string_memory_ptr",
        "label": "mapping(string => struct Certificate.CertificateDetail)",
        "numberOfBytes": "32",
        "value": "t_struct(CertificateDetail)67_storage"
      },
      "t_string_memory_ptr": {
        "encoding": "bytes",
        "label": "string",
        "numberOfBytes": "32"
      },
      "t_string_storage": {
        "encoding": "bytes",
        "label": "string",
        "numberOfBytes": "32"
      },
      "t_struct(CertificateDetail)67_storage": {
        "encoding": "inplace",
        "label": "struct Certificate.CertificateDetail",
        "members": [
          {
            "astId": 54,
            "contract": "contracts/Certificate.sol:Certificate",
            "label": "owner",
            "offset": 0,
            "slot": "0",
            "type": "t_address"
          },
          {
            "astId": 56,
            "contract": "contracts/Certificate.sol:Certificate",
            "label": "issuer",
            "offset": 0,
            "slot": "1",
            "type": "t_address"
          },
          {
            "astId": 58,
            "contract": "contracts/Certificate.sol:Certificate",
            "label": "documentUrl",
            "offset": 0,
            "slot": "2",
            "type": "t_string_storage"
          },
          {
            "astId": 60,
            "contract": "contracts/Certificate.sol:Certificate",
            "label": "uniqueId",
            "offset": 0,
            "slot": "3",
            "type": "t_string_storage"
          },
          {
            "astId": 62,
            "contract": "contracts/Certificate.sol:Certificate",
            "label": "courseId",
            "offset": 0,
            "slot": "4",
            "type": "t_string_storage"
          },
          {
            "astId": 64,
            "contract": "contracts/Certificate.sol:Certificate",
            "label": "remarks",
            "offset": 0,
            "slot": "5",
            "type": "t_string_storage"
          },
          {
            "astId": 66,
            "contract": "contracts/Certificate.sol:Certificate",
            "label": "isValid",
            "offset": 0,
            "slot": "6",
            "type": "t_bool"
          }
        ],
        "numberOfBytes": "224"
      },
      "t_struct(User)52_storage": {
        "encoding": "inplace",
        "label": "struct Certificate.User",
        "members": [
          {
            "astId": 44,
            "contract": "contracts/Certificate.sol:Certificate",
            "label": "userId",
            "offset": 0,
            "slot": "0",
            "type": "t_address"
          },
          {
            "astId": 47,
            "contract": "contracts/Certificate.sol:Certificate",
            "label": "role_assigned",
            "offset": 20,
            "slot": "0",
            "type": "t_enum(Role_Access)9"
          },
          {
            "astId": 49,
            "contract": "contracts/Certificate.sol:Certificate",
            "label": "universityName",
            "offset": 0,
            "slot": "1",
            "type": "t_string_storage"
          },
          {
            "astId": 51,
            "contract": "contracts/Certificate.sol:Certificate",
            "label": "isValid",
            "offset": 0,
            "slot": "2",
            "type": "t_bool"
          }
        ],
        "numberOfBytes": "96"
      }
    }
  }
}